:020000040800F2
:10000000E0040020751C0008391B00083B1B000899
:100010003D1B00083F1B0008411B000800000000BA
:10002000000000000000000000000000431B00086A
:10003000451B000800000000471B0008491B000882
:10004000851C0008891C00088D1C0008911C0008F4
:10005000951C0008991C00089D1C0008A11C0008A4
:10006000A51C0008A91C0008AD1C0008B11C000854
:10007000B51C0008B91C0008BD1C0008C11C000804
:10008000C51C0008C91C0008CD1C0008D11C0008B4
:100090004D1B0008D51C0008D91C0008DD1C0008F9
:1000A000E11C0008531B0008E51C0008E91C0008BF
:1000B000ED1C0008F11C0008F51C0008F91C0008E4
:1000C000FD1C0008011D0008051D0008091D000891
:1000D0000D1D0008111D0008151D0008191D000840
:1000E000611B00081D1D0008211D0008251D0008BA
:1000F000291D00082D1D0008311D0008351D0008B0
:10010000391D00083D1D0008411D0008451D00085F
:10011000491D00084D1D0008511D0008551D00080F
:10012000591D00085D1D0008611D0008651D0008BF
:10013000691D000800000000000000006D1D00089F
:10014000711D0008751D0008791D00087D1D00083F
:10015000811D0008851D0008891D00088D1D0008EF
:10016000911D0008951D0008991D00089D1D00089F
:10017000A11D0008A51D0008A91D00080000000021
:1001800000000000AD1D000800000000000000009D
:10019000B11D00080000000000000000B51D0008AF
:1001A000000000000000000000000000B91D000871
:1001B000BD1D0008C11D0008C51D0008C91D00089F
:1001C000CD1D000838B5040022D094F8200010B9E5
:1001D000204600F06DFB00F00FF9054620684168ED
:1001E000C80705D400F0C6FB401B0B28F6D30DE072
:1001F00000F0FBF800F0BEFB054620684168880768
:1002000008D500F0B7FB401B0B28F6D300F0E5F84B
:10021000012032BD207E012806D1216808680A46E7
:1002200040F08000106005E020680168024621F07F
:1002300080011160607E00F03DF80CBF41F040018C
:1002400021F040010160A07E00F034F80CBF41F0C5
:10025000200121F020010160E07E00F02BF80CBFAE
:1002600021F0100141F010010160207F00F022F820
:100270000CBF41F0080121F008010160607F00F02F
:1002800019F80CBF41F0040121F004010160A268DB
:10029000E0682169024360690A436168024320689B
:1002A000491E0A43C26100216162012084F82000D6
:1002B000002032BD0128206801687047F0B590F831
:1002C0002020012A18BF022A54D14F4A106840F05A
:1002D00001001060136823F47C53136010684B6AAC
:1002E00040EA0320106001200B7D03F01F0300FA99
:1002F00003F3D069DC432040D061444800F5117518
:1003000000F51076C86958B9D0682040D060CF6831
:1003100000F034F80F68C7EA004C486945F830C06F
:10032000C86901280BD1D0681843D0600F6800F06D
:1003300025F8CE684F69C6EA004045F8370088695D
:10034000002850680CBF20401843506008690028FE
:10035000506907BF0440546118435061086A01287E
:1003600002D1D0690343D3610020116849084900D4
:100370001160F0BD416A41F48021ABE04868D1F8DA
:1003800014C0C0EA074746F83C708868704738B523
:10039000044694F82000012819D1022184F8201085
:1003A0002068026852085200026000F0E3FA054635
:1003B00020684168C80707D500F0DCFA401B0B280D
:1003C000F6D300F00AF806E00020606232BD606AF1
:1003D00040F400206062012032BD606A40F40030C9
:1003E0006062052184F82010704720680168024689
:1003F00021F00201116070472068016841F001019D
:10040000016000F0B7BA00000066004000640040E0
:10041000F0B590F820400568AD68012C18BF022C9B
:1004200055D115F0E05F4ED0C5F30164032C03D322
:10043000416A41F400014DE00125A5401D60240101
:100440000368CE6803F5C0758B681BB90B6846EA74
:10045000435603E04F6843EAC7031E432E51056825
:100460000B6905F5C2763351097D012906D1036870
:1004700003F5C2710D5945F480750D519379D17909
:1004800055791B0443EA0163117943EA05230568A2
:1004900025440B43C5F88C319378D17855781B04EB
:1004A00043EA01631178026843EA052322440B43BF
:1004B000C2F88831006800F5C070015941F00101AF
:1004C00001510020F0BD416A41F4001102E0416A8F
:1004D00041F4802141620120F0BD416A41F4802154
:1004E0004162012070470146002091F82020012A36
:1004F00018BF022A0CD109688A68530148BF01203D
:100500008A68130148BF401C8968CA0048BF401C64
:1005100070470246002092F82030012B18BF022BB2
:1005200007D11268936803EA8163B3EB816F18BF48
:1005300001207047F0B590F82040012C18BF022C24
:1005400066D10029046801D1E56800E0256915F04D
:10055000030F03D1416A41F400115CE00D0104F581
:10056000D876745914F004049460066806F5D876B9
:1005700003D17459640D146002E07659F608566090
:10058000046804F5D876775907F00207D76000F0C1
:1005900043F806F00F06166100F03EF8C6F3072494
:1005A000946100F039F8360C566102682A44D2F89A
:1005B000B8411C7006682E44D6F8B821120A5A7049
:1005C00004682C44D4F8B821120C9A7004682C44A6
:1005D000D4F8B821120EDA7000F023F81A7100F086
:1005E00020F8120A5A7100F01CF8120C9A7100F0EF
:1005F00018F8120EDA71006821B9C16841F02001C3
:10060000C16003E0016941F0200101610020F0BDFB
:10061000416A41F480215DE704682C44D4F8B46158
:10062000704704682C44D4F8BC21704790F820200F
:10063000012A18BF022A03D100684269114300E071
:100640004BE74161002070472DE9F84F05464FF018
:10065000000828684669D0F804B08468D0F80C9087
:10066000D0F810A08769F10745D5E20713D501211D
:100670008160A00703D5284600F082F90BE06007EF
:1006800048BF4FF4006806D420074EBF4FF480588F
:10069000284600F076F9E00515D52A684FF48071F8
:1006A000A005916003D5284600F06CF90BE06005C9
:1006B00048BF48F4005806D420054EBF48F480488F
:1006C000284600F060F9E00315D52A684FF4803120
:1006D000A003916003D5284600F056F90BE06003B3
:1006E00048BF48F4004806D420034EBF48F4803881
:1006F000284600F04AF9300748BF5FEAC96104D5CF
:100700002968102048F40078C860700748BF5FEA85
:10071000097105D508202A68D060284600F036F90E
:10072000B00707D52968C86810F0030F1CBF28461A
:1007300000F065F9700648BF5FEACA6104D5296810
:10074000102048F480680861B00648BF5FEA0A716B
:1007500005D508202A681061284600F0D0FAF00676
:1007600007D52968086910F0030F1CBF284600F060
:10077000C7FAB00348BF5FEACB6105D52A681020ED
:100780005060284600F0BDFAF00348BF5FEA0B71E5
:1007900005D52A6808205060284600F0B3FA3004D6
:1007A00040D55FEA4B713AD5F00503D5F90748BF4C
:1007B00048F00108B00503D5B90748BF48F0020862
:1007C000700503D5790748BF48F00408300526D5E1
:1007D00017F0700F23D007F07007102F0CD0202FC8
:1007E0000DD0302F0ED0402F0FD0502F10D0602FB3
:1007F00008BF48F480780DE048F008080AE048F0A7
:10080000100807E048F0200804E048F0400801E044
:1008100048F080082868816921F070018161042016
:1008200029684860B8F1000F09D0686A48EA0008F2
:10083000C5F824802846BDE8F24F00F064BABDE850
:10084000F18F30B5016884684218416802EB5103AA
:10085000C90703D54C4401E0491C08D19A4218BF8E
:1008600012F9011B01D10C3030BD12F8015B0029D7
:1008700004F8015BF0D4491EF7D5EFE781B0002002
:10088000009000223548416841F480414160416850
:1008900001F48041009100990092036843F0805375
:1008A0000360006800F080500090009801B070472D
:1008B00010B586B004461422002101A800F024FAE5
:1008C00021682748814229D10022264800920169E7
:1008D00041F000710161016901F00071009100991E
:1008E00000924FF4C051036843F0010303600222F9
:1008F00000F02EF81C48019102920021039103227E
:1009000009210591049201A900F008FA00220021B2
:10091000142000F023FB142000F03DFB06B010BDB6
:1009200000681249884200D0704780B50022104804
:100930000092016841F001010160002100F008F817
:10094000192000F00BFBBDE80240192000F023BB8A
:10095000006800F0010000900098704740380240A5
:1009600000640040303802400000024000000140B6
:100970004438024001484068704700BF50000020E2
:100980007047704770477047704770477047000066
:1009900030B58278C17804784578037941EA02213C
:1009A000427945EA04252DB242EA032200EE105AAC
:1009B000DFF81433B8EEC00ADFED5A0A60EE200A01
:1009C00009B212B2C3ED010A01EE101A00EE102AAC
:1009D000B8EEC11AF2EE041AB8EEC00ADFED520A00
:1009E00061EE211A60EE200AC3ED021AC3ED030A7C
:1009F00090F90610197090F90700587030BD10B5C5
:100A0000DFF8C84204F11C0322460021FFF792FDE3
:100A100020B904F11C00BDE81040B9E710BD38B59D
:100A2000DFF8AC52E8620C460020042168632963B9
:100A3000AA632846FFF757FD0028FAD005F14003C6
:100A4000224605F128012846FFF7E2FC296C2846DA
:100A5000FFF75FFD0128F9D031BDF0B513780C1612
:100A6000C4545B1CDFB20E145B1CC655DDB20C1205
:100A7000445500F001F8F0BD5B1C5E1CDBB2167043
:100A8000C15470471CB5002304468DF80030BDEEFC
:100A9000C00A6A4610EE101A01A8FFF7DEFF00F048
:100AA00005F844F44070FFF7BAFF13BD9DF800202D
:100AB00001A970478749FF20087048708870C87086
:100AC0000871487188710822FC200AE08149FF20E2
:100AD000087048708870C870087148718871082261
:100AE000FD20C87168209AE77B490A1D904203D116
:100AF000087891ED130AC5E77047B0F5005F0FD194
:100B0000754841780E2908BFFFF7D4BF522908BFA6
:100B1000FFF7DCBF022903D190ED130A0078B1E79B
:100B200070470000CDCCCC3D0AD7233C38B58AB005
:100B300000F05CFA00F080F800F0DCF80020009093
:100B4000634C6648644D016841F00401016002682D
:100B500002F0040200920022009900924FF400512A
:100B6000036843F0010303604FF40412006800F0CF
:100B70000100009000985A480191029200210391CF
:100B800001A900F0CBF800220021282000F0E6F9AE
:100B9000282000F000FA5348206003216160012002
:100BA00000224FF4E021E076A260E2602161626100
:100BB0002283A276A2832046FFF704FB10220021A5
:100BC00002A800F0A1F808220021684600F09CF875
:100BD000454868600121A9600020E8604EF65F2169
:100BE0006861A861E8612961281D00F019FA4FF4D5
:100BF0008050029002A9281D00F0DBFA002100912C
:100C00000191281D694600F0CFFB00200590069059
:100C100007900190039000900290049001220892A6
:100C200069462046FFF74AFB2046FFF7B0FB02214A
:100C30002046FFF7FBFCFEE700B593B0342200210D
:100C400006A800F061F800F055F80020009001239C
:100C50002648016841F0805101600021006800F0E1
:100C6000805000900098224800910121026861F3B1
:100C70008F3202600222006800F44040009006A813
:100C80000099069210210A910C92002108220D91E0
:100C90000E927821022209930F91109211921292D2
:100CA00000F011FC02210291002203920F204FF468
:100CB000A051019004914FF480520592032101A8A4
:100CC00000F0AEFD13B000BDC8000020A40000205D
:100CD00060000020D80000200000002030380240D2
:100CE000000802400064004000000140403802401B
:100CF000007000401422002101A800F005B87047E0
:100D0000704770477047704710B5044610460A4652
:100D10000146204600F014FE204610BD2DE9F84F94
:100D20000D4600267549764A0F23044601202F6898
:100D3000B04000EA0708804540F0D0804FEA460CFA
:100D4000032707FA0CF76FEA070E6F6807F003092D
:100D5000B9F1010F1CBF07F00307022F12D1A768DA
:100D6000D5F80C900EEA070709FA0CF949EA0707CB
:100D7000A760676827EA00006F68C7F30017B740ED
:100D800038436060B0002F7907F00307032F21D0AC
:100D9000E768D5F808900EEA070709FA0CF949EA5E
:100DA0000707E7602F7907F00307022F12D1F70832
:100DB00004EB870700F01C09D7F820A003FA09FB11
:100DC0002AEA0B0AD5F810B00BFA09F949EA0A0920
:100DD000C7F8209027680EEA070E2F7907F003075F
:100DE00007FA0CF747EA0E0CC4F800C06F6817F456
:100DF000403F73D04FF0000ECDF800E04FEA960C64
:100E0000176847F48047176000F00C00D2F800E044
:100E10003C4F0EF4804ECDF800E0DDF800E057F8CE
:100E20002C7003FA00FE27EA0E0E374FBC4208BFB3
:100E300000271DD0354FBC4208BF012718D0344FC2
:100E4000BC4208BF022713D0324FBC4208BF032761
:100E50000ED0314FBC4208BF042709D02F4FBC42EF
:100E600008BF052704D02E4FBC420CBF062707271A
:100E700007FA00F040EA0E00DFF888E04EF82C0098
:100E80006FEA0800D1F808C06F6800EA0C0CFF0296
:100E900048BF48EA0C0CC1F808C0D1F80CC06F6814
:100EA00000EA0C0CBF0248BF48EA0C0CC1F80CC0A9
:100EB000D1F804C06F6800EA0C0CBF0348BF48EAD1
:100EC0000C0CC1F804C0D1F800C000EA0C0C686832
:100ED000C00348BF48EA0C0CC1F800C0761C0F2EB6
:100EE0007FF624AFBDE8F18F0E4A136801460B422E
:100EF0001CBF1160FFF701BE70470000003C0140BD
:100F0000443802400838014000000240000402401A
:100F100000080240000C0240001002400014024091
:100F200000180240143C01400901020002D4294883
:100F300081547047284B02F00F021A4402F8041C37
:100F40007047264B19684FF6FF020002114000F46B
:100F5000E0600843224908431860704770B51F4B92
:100F60001C68C4F302230124C3F10705052D2EBF1D
:100F70000F2504FA05F56D1E1E1D072E34BF002334
:100F8000DB1E2940994004FA03F3BDE870405B1E64
:100F90001A401143C8E7010007D4012200F01F01E5
:100FA000104B8A40400943F82020704710B5401E7E
:100FB000B0F1807F01D3012010BD0B4C60600F2188
:100FC0004FF0FF30FFF7B0FF0021A1600720206045
:100FD000002010BD00E400E018ED00E00CED00E0A2
:100FE0000000FA0500E100E010E000E080B50B48E9
:100FF000016841F400710160026842F4806202609D
:10100000016841F4807101600320FFF79AFF00201E
:1010100000F0CAFCFFF732FC002002BD003C024099
:1010200038B5040001D1012032BD00F01AF818B91A
:1010300000F01DF9FFF774FCFFE702206870211D26
:10104000206800F018F90120A8720121A970E87049
:1010500029716871A971E87129726872697000203C
:1010600032BD04F13C056878704710B5044620682D
:1010700001698A0715D5C1688A0712D56FF0020188
:10108000016101222277806910F0030F204602D00F
:1010900000F0AAFC03E000F0A8FC00F087F80020B4
:1010A0002077206801694A0715D5C1684A0712D51B
:1010B0006FF00401016102222277806910F4407F01
:1010C000204602D000F090FC03E000F08EFC00F01F
:1010D0006DF800202077206801690A0715D5C168DE
:1010E0000A0712D56FF00801016104222277C06956
:1010F00010F0030F204602D000F076FC03E000F071
:1011000074FC00F053F80020207720680169CA06BB
:1011100015D5C168CA0612D56FF010010161082209
:101120002277C06910F4407F204602D000F05CFCBA
:1011300003E000F05AFC00F039F800202077206826
:101140000169CA0708D5C168CA0705D56FF0010152
:1011500001612046FFF7C8FC206801690A0608D52E
:10116000C1680A0605D56FF080010161204600F0D4
:101170003DFC206801694A0608D5C1684A0605D5C4
:101180006FF040010161204600F031FC20680169E8
:101190008A060AD5C1688A0607D56FF02001016169
:1011A0002046BDE8104000F023BC10BD204600F0F2
:1011B00020BC70B5064606F13C05002428780128BD
:1011C00001D1022070BD0120287002226A70DFF870
:1011D0003C0132689368034093600868020018BFBE
:1011E000102830D0202818BF30282CD0402826D0F6
:1011F000502819D060281BD0702806D0B0F5805F29
:1012000027D0B0F5005F07D022E000F02BF830685F
:10121000816841F0770105E000F024F830688168CA
:1012200041F48041816014E000F018F850210BE097
:10123000CA684968306800F090F8602104E000F066
:101240000DF8402100E00146306800F098F800E019
:1012500001240120687000F00AF870BDCA6849686E
:1012600030686BE0CB684A68896830688FE000219D
:10127000297020467047F0B50568254C254B264E51
:10128000264FDFF89CC0A04218BFB0F1804F07D0B6
:10129000604518BFB84203D0B04218BF98420DD184
:1012A0004A6825F070051543A04218BFB0F1804F81
:1012B00017D060451CBFB842B04212D098421CBF44
:1012C000184A90420DD0184EB0421CBF174A9042A7
:1012D00007D0174EB0421FBF164A9042164EB0427A
:1012E00003D1CA6825F4407515434A6925F0800585
:1012F00015430560A0428D68C5620A68826212BF0C
:1013000098420969016301224261F0BD8800FFFF34
:101310000000014000040140000C004000080040B3
:1013200000040040004001400044014000480140EA
:1013300000180040001C00400020004010B5036A67
:10134000046A64086400046223F00A03846924F0D8
:10135000F00444EA0214846123E010B5036A23F028
:10136000100303628369046A23F4704343EA02337F
:1013700024F0A004836144EA0114046210BD826871
:1013800022F07002114341F007018160704710B5EF
:10139000846824F47F442143114341EA032181609E
:1013A00010BD1943016210BD70B500F13C031A78FD
:1013B000012A01D1022070BD01221A7002245C7042
:1013C00005686E68AC680A6826F0700616436E60A1
:1013D00002681148824218BFB2F1804F11D0114803
:1013E00082421CBF104DAA420BD00D4882421CBF46
:1013F0000E4DAA4205D0094882421CBF0C4DAA429C
:1014000004D1486824F08004044394600121597099
:101410000020187070BD0000000001400040014035
:10142000000C00400004004000080040000401409F
:101430000018004000200860FFF79CBA2DE95041D9
:10144000DFF8C843DFF8BC636068DFF8BC8300F0F6
:101450000C00042804D0082804D00C2815D027E05C
:10146000404626E000F027F847BFC0F38816A8FBE7
:101470000601C0F38818A6FB080100F0BBFA21683A
:10148000C1F30141491C49000FE000F014F847BFC7
:10149000C0F38816A8FB0601C0F38818A6FB080154
:1014A00000F0A8FA2168C1F30271B0FBF1F000E08E
:1014B0003046BDE850810023226820684102206840
:1014C00002F03F0270472DE9F84304001BD020785A
:1014D000DFF83C63C10718D500F08BF904280DD064
:1014E00000F087F9082802D17068410206D400F0A4
:1014F00080F90C2845D17068410242D530688103DB
:1015000003D56068002800F06F812078DFF804734D
:1015100081071FD5B06810F00C0F0DD000F069F9ED
:10152000082802D17068410206D500F062F90C2843
:101530005CD17068410259D43068810703D5E068F6
:10154000012840F051813168206921F0F80141EA19
:10155000C00131602178080779D56069DFF8B812D9
:10156000002868D001220A60FFF704FA0546706F70
:1015700081076CD4FFF7FEF9401B0228F7D903203E
:1015800035E16068B0F5803F04D1306840F48030C8
:10159000306011E0B0F5A02F306806D140F4802013
:1015A0003060316841F4803105E020F480303060F3
:1015B000316821F480213160606858B1FFF7DAF9B1
:1015C000054630688103A0D4FFF7D4F9401B652895
:1015D000F7D3D4E7FFF7CEF905463068810394D5F9
:1015E000FFF7C8F9401B6528F7D3C8E7E068A8B142
:1015F00001213960FFF7BEF905463068810705D43F
:10160000FFF7B8F9401B0228F7D9B8E7306821691D
:1016100020F0F80040EAC10030609BE73860FFF737
:10162000A9F905463168880794D5FFF7A3F9401B4F
:101630000228F7D9A3E7FFF7FEFE0546706F810782
:1016400005D5FFF797F9401B0228F7D997E72078CF
:10165000410760D5306C0025C1000BD400200090FC
:101660000125316C41F080513164306C00F08050C4
:1016700000900098DFF8A481D8F80000C10513D4C9
:10168000D8F8000040F48070C8F80000FFF772F945
:101690008146D8F80000C10506D4FFF76BF9A0EB2E
:1016A00009000228F5D96AE7A068012805D00528B5
:1016B000306F06D140F004003067306F40F0010019
:1016C00005E0400840003067306F20F004003067CC
:1016D00041F28938A06860B1FFF74CF98146306F5C
:1016E000810713D4FFF746F9A0EB09004045F6D374
:1016F00045E7FFF73FF98146306F810706D5FFF7D1
:1017000039F9A0EB09004045F6D338E71DB1306C3C
:1017100020F080503064A069002867D0B16801F0E3
:101720000C01082938D002282AD100F066F80546B5
:101730003068810105D5FFF71DF9401B0228F7D954
:101740001DE7E069216A626A0843A16A490840EA24
:101750008210491E40EA0140E16A226B40EA0160C2
:1017600040EA02707060012000F048F804463068DA
:1017700081013BD4FFF7FEF8001B0228F7D9FEE6F3
:1017800000F03BF80446306881012FD5FFF7F2F8EE
:10179000001B0228F7D9F2E6012825D07068E2691B
:1017A00000F48001914202BF00F03F01226A9142A1
:1017B00001BF47F6C0710140626AB1EB821F13D1CD
:1017C000A26A520800F44031521EB1EB024F02BF30
:1017D00000F07061E26AB1EB026F02BF00F0E0401E
:1017E000216BB0EB017F01D0012000E00020BDE8BB
:1017F000F283B06800F00C00704700203866FFF7F5
:10180000B9B800000024F40040787D01043802409B
:101810000038024000004742800E474200700040FE
:101820002DE9F04104000F4654D0404E306800F0DE
:101830000F00B84202D200F073F84BD120683C4D43
:10184000810712D5400703D5A96841F4E051A9608A
:101850002078010703D5A86840F46040A860A96813
:10186000A06821F0F0010143A9602178C80729D5BB
:101870006068012802D129688A0305E0022818BFA0
:10188000032803D129688A0103D423E029688A0741
:1018900020D5A968890840EA8100A860FFF76AF8A6
:1018A0008046A868616800F00C00B0EB810F09D099
:1018B000FFF760F8A0EB080041F289318842F0D3CD
:1018C00003202BE0306800F00F00874204D200F0C4
:1018D00027F801D0012021E02078410705D5AA682A
:1018E000E06822F4E0520243AA602178080706D596
:1018F000A968206921F4604141EAC001A960FFF7AD
:101900009DFDAA680B490C4BC2F30312895CC840C9
:1019100018600A48006800F047F80020BDE8F08130
:101920003770316801F00F01B9427047003C024046
:1019300000380240941B00085C0000205800002082
:1019400062F30F2262F31F42401810F0030308D025
:10195000C91A1FD3DB0748BF00F8012D28BF20F8A4
:10196000022D130030B414461546103928BF20E963
:101970003C00FAD8490728BF20E90C0048BF40F8CE
:10198000042D890028BF20F8022D48BF00F8012D42
:1019900030BC7047C91818BF00F8012DCB0728BF0D
:1019A00000F8012D7047000038B50D4D0D4B2A7819
:1019B00004464FF47A711868B1FBF2F2B0FBF2F012
:1019C000FFF7F4FA50B9102C08D2002221464FF04C
:1019D000FF30FFF7C3FAAC60002032BD012032BDFA
:1019E000500000205C00002070477047704770472F
:1019F00070477047D3BBD9B1B2F5803F5BD2022AA2
:101A00001ED98C46B1FBF2F102FB11C31B0443EA61
:101A10001043B3FBF2FC02FB1C3380B240EA0343E9
:101A2000B3FBF2F002FB103240EA0C400023704797
:101A3000022A05D98446B0FBF2F002FB10C27047BF
:101A40004AB105D100F0010249085FEA3000704751
:101A500000220023704700F051B80B000200002163
:101A600000207047F7D3002200237047904271EBAB
:101A7000030CF2D370B5B1FA81F4B3FA83F52C1BE1
:101A8000A340C4F1200532FA05F63343A2405FF0CB
:101A90000046E64002E05B085FEA3202841A71EB1E
:101AA000030524BF204629467641F4D302000B00EB
:101AB0003000002170BD70B5B1FA81F4B2FA82F540
:101AC000C4F120046419B4F12006DAD3B2405FF007
:101AD0000044F440002502E052085FEA3303C61ACE
:101AE00071EB020E24BF3046714664416D41F3D361
:101AF00002000B002000290070BD0000704730B4C8
:101B0000002512E050F8042BD30744BF4A44521E6C
:101B1000091F042942F8045BFAD213468C0744BF1C
:101B200015809B1CC90748BF1D7050F8041B002975
:101B3000E8D130BC704700007047FEE7FEE7FEE7E3
:101B4000FEE770477047704700F00EB80248FEF796
:101B50007BBD0248FFF789BA600000200400002026
:101B60004FF40050FFF7C0B90248416802788A1864
:101B700042607047500000200448054A016841F463
:101B8000700101604FF000601060704788ED00E068
:101B900008ED00E000000000000000000102030466
:101BA0000607080910B5074979441831064C7C44EA
:101BB000163404E00A68081D114488470146A14212
:101BC000F8D110BD2C000000480000004EF68851EE
:101BD000CEF20001086840F470000860BFF34F8F38
:101BE000BFF36F8F4FF00170E1EE100A70470000F5
:101BF0000FFFFFFF800000006000002000000000D9
:101C000043ECFFFFCC010000260000000000002094
:101C100000F00DF8002801D0FFF7C4FFAFF30080FB
:101C20000020AFF30080FEF781FF00F002F80120F2
:101C3000704700F001B800000746384600F002F88F
:101C4000FBE7000080B5AFF30080024A11001820C6
:101C5000ABBEFBE7260002000548014603B4684618
:101C600080F30988AFF30080FFF7B0FFFFF7D0FFE4
:101C7000A5EDF5FE0148804701480047791B0008A3
:101C8000591C0008FFF7FEBFFFF7FEBFFFF7FEBFBE
:101C9000FFF7FEBFFFF7FEBFFFF7FEBFFFF7FEBF78
:101CA000FFF7FEBFFFF7FEBFFFF7FEBFFFF7FEBF68
:101CB000FFF7FEBFFFF7FEBFFFF7FEBFFFF7FEBF58
:101CC000FFF7FEBFFFF7FEBFFFF7FEBFFFF7FEBF48
:101CD000FFF7FEBFFFF7FEBFFFF7FEBFFFF7FEBF38
:101CE000FFF7FEBFFFF7FEBFFFF7FEBFFFF7FEBF28
:101CF000FFF7FEBFFFF7FEBFFFF7FEBFFFF7FEBF18
:101D0000FFF7FEBFFFF7FEBFFFF7FEBFFFF7FEBF07
:101D1000FFF7FEBFFFF7FEBFFFF7FEBFFFF7FEBFF7
:101D2000FFF7FEBFFFF7FEBFFFF7FEBFFFF7FEBFE7
:101D3000FFF7FEBFFFF7FEBFFFF7FEBFFFF7FEBFD7
:101D4000FFF7FEBFFFF7FEBFFFF7FEBFFFF7FEBFC7
:101D5000FFF7FEBFFFF7FEBFFFF7FEBFFFF7FEBFB7
:101D6000FFF7FEBFFFF7FEBFFFF7FEBFFFF7FEBFA7
:101D7000FFF7FEBFFFF7FEBFFFF7FEBFFFF7FEBF97
:101D8000FFF7FEBFFFF7FEBFFFF7FEBFFFF7FEBF87
:101D9000FFF7FEBFFFF7FEBFFFF7FEBFFFF7FEBF77
:101DA000FFF7FEBFFFF7FEBFFFF7FEBFFFF7FEBF67
:101DB000FFF7FEBFFFF7FEBFFFF7FEBFFFF7FEBF57
:101DC000FFF7FEBFFFF7FEBFFFF7FEBFFFF7FEBF47
:101DD00001680EB400027A4401F9000010FC000210
:031DE00024F400E8
:0400000508001C597A
:00000001FF
