:020000040800F2
:1000000030060020B13100083130000833300008DC
:100010003530000837300008393000080000000093
:100020000000000000000000000000003B3000085D
:100030003D300008000000003F300008413000085B
:10004000C1310008C5310008C9310008CD310008B0
:10005000D1310008D5310008D9310008DD31000860
:10006000E1310008E5310008E9310008ED31000810
:10007000F1310008F5310008F9310008FD310008C0
:100080000132000805320008093200080D3200086C
:1000900045300008113200081532000819320008F6
:1000A0001D3200084B3000082132000825320008BC
:1000B000293200082D32000831320008353200089C
:1000C000393200083D32000841320008453200084C
:1000D000493200084D3200085132000855320008FC
:1000E00051300008593200085D32000861320008C2
:1000F00065320008693200086D320008713200086C
:1001000075320008793200087D320008813200081B
:1001100085320008893200088D32000891320008CB
:100120005930000895320008993200089D320008C5
:10013000A13200080000000000000000A532000805
:10014000A9320008AD320008B1320008B53200080B
:10015000B9320008BD320008C1320008C5320008BB
:10016000C9320008CD320008D1320008D53200086B
:10017000D9320008DD320008E1320008000000003A
:1001800000000000E5320008000000000000000050
:10019000E93200080000000000000000ED32000815
:1001A000000000000000000000000000F132000824
:1001B000F5320008F9320008FD320008013300086A
:1001C0000533000838B5040022D094F8200010B997
:1001D000204600F0ADFB00F00FF9054620684168AD
:1001E000C80705D400F01EFC401B0B28F6D30DE019
:1001F00000F0FBF800F016FC05462068416888070F
:1002000008D500F00FFC401B0B28F6D300F0E5F8F2
:10021000012032BD207E012806D1216808680A46E7
:1002200040F08000106005E020680168024621F07F
:1002300080011160607E00F03DF80CBF41F040018C
:1002400021F040010160A07E00F034F80CBF41F0C5
:10025000200121F020010160E07E00F02BF80CBFAE
:1002600021F0100141F010010160207F00F022F820
:100270000CBF41F0080121F008010160607F00F02F
:1002800019F80CBF41F0040121F004010160A268DB
:10029000E0682169024360690A436168024320689B
:1002A000491E0A43C26100216162012084F82000D6
:1002B000002032BD0128206801687047F0B590F831
:1002C0002020012A18BF022A54D14F4A106840F05A
:1002D00001001060136823F47C53136010684B6AAC
:1002E00040EA0320106001200B7D03F01F0300FA99
:1002F00003F3D069DC432040D061444800F5117518
:1003000000F51076C86958B9D0682040D060CF6831
:1003100000F034F80F68C7EA004C486945F830C06F
:10032000C86901280BD1D0681843D0600F6800F06D
:1003300025F8CE684F69C6EA004045F8370088695D
:10034000002850680CBF20401843506008690028FE
:10035000506907BF0440546118435061086A01287E
:1003600002D1D0690343D3610020116849084900D4
:100370001160F0BD416A41F48021ABE04868D1F8DA
:1003800014C0C0EA074746F83C708868704738B523
:10039000044694F82000012819D1022184F8201085
:1003A0002068026852085200026000F03BFB0546DC
:1003B00020684168C80707D500F034FB401B0B28B4
:1003C000F6D300F00AF806E00020606232BD606AF1
:1003D00040F400206062012032BD606A40F40030C9
:1003E0006062052184F82010704720680168024689
:1003F00021F00201116070472068016841F001019D
:10040000016000F00FBB0000006600400064004087
:10041000F0B590F820400568AD68012C18BF022C9B
:1004200055D115F0E05F4ED0C5F30164032C03D322
:10043000416A41F400014DE00125A5401D60240101
:100440000368CE6803F5C0758B681BB90B6846EA74
:10045000435603E04F6843EAC7031E432E51056825
:100460000B6905F5C2763351097D012906D1036870
:1004700003F5C2710D5945F480750D519379D17909
:1004800055791B0443EA0163117943EA05230568A2
:1004900025440B43C5F88C319378D17855781B04EB
:1004A00043EA01631178026843EA052322440B43BF
:1004B000C2F88831006800F5C070015941F00101AF
:1004C00001510020F0BD416A41F4001102E0416A8F
:1004D00041F4802141620120F0BD416A41F4802154
:1004E0004162012070470146002091F82020012A36
:1004F00018BF022A0CD109688A68530148BF01203D
:100500008A68130148BF401C8968CA0048BF401C64
:1005100070470246002092F82030012B18BF022BB2
:1005200007D11268936803EA8163B3EB816F18BF48
:1005300001207047F0B590F82040012C18BF022C24
:1005400066D10029046801D1E56800E0256915F04D
:10055000030F03D1416A41F400115CE00D0104F581
:10056000D876745914F004049460066806F5D876B9
:1005700003D17459640D146002E07659F608566090
:10058000046804F5D876775907F00207D76000F0C1
:1005900043F806F00F06166100F03EF8C6F3072494
:1005A000946100F039F8360C566102682A44D2F89A
:1005B000B8411C7006682E44D6F8B821120A5A7049
:1005C00004682C44D4F8B821120C9A7004682C44A6
:1005D000D4F8B821120EDA7000F023F81A7100F086
:1005E00020F8120A5A7100F01CF8120C9A7100F0EF
:1005F00018F8120EDA71006821B9C16841F02001C3
:10060000C16003E0016941F0200101610020F0BDFB
:10061000416A41F480215DE704682C44D4F8B46158
:10062000704704682C44D4F8BC21704790F820200F
:10063000012A18BF022A03D100684269114300E071
:100640004BE74161002070472DE9F84F05464FF018
:10065000000828684669D0F804B08468D0F80C9087
:10066000D0F810A08769F10745D5E20713D501211D
:100670008160A00703D5284600F0DAF90BE0600797
:1006800048BF4FF4006806D420074EBF4FF480588F
:10069000284600F0CEF9E00515D52A684FF48071A0
:1006A000A005916003D5284600F0C4F90BE0600571
:1006B00048BF48F4005806D420054EBF48F480488F
:1006C000284600F0B8F9E00315D52A684FF48031C8
:1006D000A003916003D5284600F0AEF90BE060035B
:1006E00048BF48F4004806D420034EBF48F4803881
:1006F000284600F0A2F9300748BF5FEAC96104D577
:100700002968102048F40078C860700748BF5FEA85
:10071000097105D508202A68D060284600F08EF9B6
:10072000B00707D52968C86810F0030F1CBF28461A
:1007300000F086F9700648BF5FEACA6104D52968EF
:10074000102048F480680861B00648BF5FEA0A716B
:1007500005D508202A681061284600F03BFBF0060A
:1007600007D52968086910F0030F1CBF284600F060
:1007700032FBB00348BF5FEACB6105D52A68102081
:100780005060284600F028FBF00348BF5FEA0B7179
:1007900005D52A6808205060284600F01EFB30046A
:1007A00040D55FEA4B713AD5F00503D5F90748BF4C
:1007B00048F00108B00503D5B90748BF48F0020862
:1007C000700503D5790748BF48F00408300526D5E1
:1007D00017F0700F23D007F07007102F0CD0202FC8
:1007E0000DD0302F0ED0402F0FD0502F10D0602FB3
:1007F00008BF48F480780DE048F008080AE048F0A7
:10080000100807E048F0200804E048F0400801E044
:1008100048F080082868816921F070018161042016
:1008200029684860B8F1000F09D0686A48EA0008F2
:10083000C5F824802846BDE8F24F00F0CFBABDE8E5
:10084000F18F30B5016884684218416802EB5103AA
:10085000C90703D54C4401E0491C08D19A4218BF8E
:1008600012F9011B01D10C3030BD12F8015B0029D7
:1008700004F8015BF0D4491EF7D5EFE781B0002002
:10088000009000225F48416841F480414160416826
:1008900001F48041009100990092036843F0805375
:1008A0000360006800F080500090009801B070472D
:1008B00038B586B000F06BF821685348814235D1D5
:1008C00000225248524D0092416941F480714161C9
:1008D000416901F480710091009900921021036830
:1008E00043F001030360032200F057F801A900F070
:1008F00077FA4848286000216960E9604FF4006099
:100900004FF48061686129614FF4807000224FF4D8
:100910000051E861AA60A9612A626A62284600F073
:1009200065FB08B100F055FAA563AC6307B030BDB4
:1009300010B586B000F02BF821683848814224D1E8
:10094000002232480092016941F0007101610169A1
:1009500001F000710091009900924FF4C0510368BA
:1009600043F001030360022200F017F8032209217B
:100970000591049201A900F033FA0022002114200D
:1009800000F004FD142000F01EFD06B010BD04466A
:100990001422002101A800F041BD006800F0010010
:1009A000009000981C480191029200210391704729
:1009B00080B500681A4A1349904214D10020009073
:1009C0004A6842F001024A600022486800F00100D3
:1009D000009000210098192000F0D8FCBDE80240EA
:1009E000192000F0F0BCB0F1804F0AD10020009037
:1009F0000A6842F001020A60086800F001000090F5
:100A0000009801BD403802400020014030380240CB
:100A100028010020106402400000024000640040F1
:100A20000000014001484068704700BFA800002056
:100A300070477047704770477047704770470000B5
:100A400010B5DD4C04F11C0322460021FFF772FDB6
:100A500028B904F11C00BDE8104000F0E9BC10BD4D
:100A600038B5CA4DCA4CA8421DD1A08800F028FD57
:100A7000D4E9142300F032FD41EC100BA078401CA7
:100A8000A070A07805280BD151EC100B0022C14BAF
:100A900000F054FEC4E916019FEDC80B0020A070C1
:100AA00084ED140B31BD04F108018842FAD120789D
:100AB00094ED182B94ED1A1A94ED160BBDE8324004
:100AC00000F06CBFB0F5005F00D0704710B5B04CBF
:100AD0006178207821B9BDE81040012101F042B8C9
:100AE0000E2907D100F04EFF04F10800BDE81040C8
:100AF00001F071B8522908D104F1080001F0A6F8FC
:100B00002078BDE8104001F042B810BDF8B58AB0B9
:100B100001F07EFA00F0F2F800F056F900209E4D48
:100B20009E4C009004F13007296841F004012960CF
:100B30000021286800F0040000904FF480560098CF
:100B400000914FF400512A6842F001022A604FF4EC
:100B50000412286800F0010000900098904801916C
:100B600002920021039101A900F03AF9002200212C
:100B7000282000F00BFC282000F025FC8948B861F3
:100B8000032100203862F9614FF4E0200021B862AF
:100B90007962F96204F16000002281700280012113
:100BA000C170828004F14800FFF70CFB0020009028
:100BB0000022296841F48001296000212868744DD1
:100BC00000F4800000900098382000F0DFFB38200F
:100BD00000F0F9FB00F088F800F08BF87248A8608C
:100BE00040F2E731E9600020286141F26F71A861AD
:100BF000E8612862696105F1080000F0DFFF0296F4
:100C000002A905F1080001F007F900210091019106
:100C100005F10800694601F015FA102200F06AF8A3
:100C2000624820600021012020616160A16021767E
:100C300084F82010E1625E48A0620120E061387013
:100C40006061E160204601F043FA04200121009038
:100C50000191002202926946204601F026FC00F034
:100C600043F800F046F8494F4FF0804038600121CA
:100C70004EF65F200022F8607960BA603A61BA618E
:100C8000384600F09BFF029602A9384601F0C4F8EE
:100C90000021009101913846694601F0D3F9002006
:100CA00005900690079001900390009002900490A8
:100CB00001220892694604F14800FFF7FFFA04F1A7
:100CC0004800FFF764FB022104F14800FFF7AEFC87
:100CD0000122291D204601F052FB204601F0ADFA09
:100CE000012001F0DDFCF8E71022002102A800F04D
:100CF00095BB08220021684600F090BB00B593B078
:100D00003422002106A800F089FB00F05DF80020E5
:100D1000009001232748016841F0805101600021C3
:100D2000006800F080500090009826480091012152
:100D3000026861F38F3202600222006800F44040D2
:100D4000009006A80099069210210A910C920021A9
:100D500008220D910E927821022209930F91109290
:100D60001192129201F0F9FC0221029100220392E9
:100D70000F204FF4A051019004914FF4805205923E
:100D8000032101A801F096FE13B000BD88010020E8
:100D9000000000200000144030380240B80000205D
:100DA00000080240006400400000014000200140B3
:100DB0000100000F40380240D00100200000000078
:100DC00000000000007000401422002101A800F083
:100DD00025BB7047704770477047704770470000E9
:100DE0002DE9F84F0D4600267549764A0F23044633
:100DF00001202F68B04000EA0708804540F0D0800D
:100E00004FEA460C032707FA0CF76FEA070E6F68E4
:100E100007F00309B9F1010F1CBF07F00307022F08
:100E200012D1A768D5F80C900EEA070709FA0CF959
:100E300049EA0707A760676827EA00006F68C7F3F9
:100E40000017B74038436060B0002F7907F0030700
:100E5000032F21D0E768D5F808900EEA070709FAB2
:100E60000CF949EA0707E7602F7907F00307022F1B
:100E700012D1F70804EB870700F01C09D7F820A06F
:100E800003FA09FB2AEA0B0AD5F810B00BFA09F9A4
:100E900049EA0A09C7F8209027680EEA070E2F7959
:100EA00007F0030707FA0CF747EA0E0CC4F800C076
:100EB0006F6817F4403F73D04FF0000ECDF800E09C
:100EC0004FEA960C176847F48047176000F00C0053
:100ED000D2F800E03C4F0EF4804ECDF800E0DDF893
:100EE00000E057F82C7003FA00FE27EA0E0E374F89
:100EF000BC4208BF00271DD0354FBC4208BF0127A8
:100F000018D0344FBC4208BF022713D0324FBC4226
:100F100008BF03270ED0314FBC4208BF042709D0B9
:100F20002F4FBC4208BF052704D02E4FBC420CBF38
:100F30000627072707FA00F040EA0E00DFF888E0EE
:100F40004EF82C006FEA0800D1F808C06F6800EA7C
:100F50000C0CFF0248BF48EA0C0CC1F808C0D1F8DD
:100F60000CC06F6800EA0C0CBF0248BF48EA0C0CCA
:100F7000C1F80CC0D1F804C06F6800EA0C0CBF03C4
:100F800048BF48EA0C0CC1F804C0D1F800C000EA20
:100F90000C0C6868C00348BF48EA0C0CC1F800C0DC
:100FA000761C0F2E7FF624AFBDE8F18F0E4A136832
:100FB00001460B421CBF1160FFF784BD7047000063
:100FC000003C014044380240083801400000024023
:100FD0000004024000080240000C024000100240E1
:100FE0000014024000180240143C014070B5044651
:100FF000FFF718FD06460CB9012070BD04F1340559
:10100000022068700021297020680268520852008E
:10101000026022681068C1070AD5FFF703FD801B34
:101020000628F6D32020286203216970032070BDB2
:101030001368DFF89C0261680340A0680B43E16815
:10104000034320690B4361690343A0690B43E169D2
:101050000343206A0B43616A0343042903D1E16A15
:10106000206B0B430343136023685A69606AD208FC
:10107000042840EAC2020AD1A66AE16A324331B1C9
:10108000A06988B9002E18BF022E1FD016D35A614E
:10109000204600F049F9A96A3F228A408260002078
:1010A00028620121697070BDB0F5005F0AD1032E7E
:1010B000EDD8DFE806F00D0B0D03E8E7B1F1C07FD6
:1010C000E5D105E0022E03D9F61EE0D1C801DED538
:1010D000402129620120687070BDF8B5044604F112
:1010E000340600253078776A012801D10220F2BD4C
:1010F0000120307096F801C0BCF1010F1FD1022011
:101100007070AC46C6F820C0204600F0FDF8B06A0A
:101110003F2101FA00FCC7F808C02068016841F0CF
:1011200016010160F06820B12068016841F00801F3
:1011300001602068016841F00101016001E0357043
:1011400002252846F2BD2DE9FC41044604F134068F
:101150000020604900904FF41650776A0A683D6895
:10116000B2FBF0F8B06A082100F0B7F80ED02068A2
:10117000026853070AD5026822F004020260B06ACE
:101180008140B960316A41F001013162B06A25FAEB
:1011900000F1CA070BD521684A69110607D501225B
:1011A00002FA00F0B860306A40F0020030620421B8
:1011B00000F092F808D021680A68930704D5B86057
:1011C000306A40F004003062102100F085F81BD036
:1011D00021680A68130717D5B860206801684A03B8
:1011E00007D5006801030BD5716969B120468847AE
:1011F0000AE00168CA0503D4016821F00801016012
:10120000F16809B120468847B06A202100F065F8EE
:101210003FD021680A68D3063BD5B8602068717852
:1012200005291CD1026822F01602026000F059F86C
:10123000F068002804BF7069002801D000F05DF854
:101240003F22B06A8240BA60012171700020F169CA
:101250003070002939D02046BDE8FC4108470168BC
:101260004A0307D5006801030FD4316989B12046CC
:1012700088470EE00168CA0507D4016821F0100113
:1012800001600120707000213170B16809B1204601
:101290008847306AC8B1306AC10710D50520707020
:1012A00000F025F80098401C8045009003D320688A
:1012B0000168CA07F6D40120707000213170B1694D
:1012C00019B12046BDE8FC410847BDE8F3810000A4
:1012D0003F8010F0B4000020B06A01FA00F005422F
:1012E00070472068416921F08001416170472068A2
:1012F000016849084900016070472068016821F0D1
:10130000080101607047000030B50468256825F4C5
:101310008025256063608068402802D1A260E1607A
:1013200030BDA160E26030BD30B5014618230868C9
:1013300007A400F0FF02103AB2FBF3F2800AA55CAA
:10134000CD658002042A28BF001D886530BD0000DD
:1013500000061016000610160901020002D42948E2
:1013600081547047284B02F00F021A4402F8041C03
:101370007047264B19684FF6FF020002114000F437
:10138000E0600843224908431860704770B51F4B5E
:101390001C68C4F302230124C3F10705052D2EBFE9
:1013A0000F2504FA05F56D1E1E1D072E34BF002300
:1013B000DB1E2940994004FA03F3BDE870405B1E30
:1013C0001A401143C8E7010007D4012200F01F01B1
:1013D000104B8A40400943F82020704710B5401E4A
:1013E000B0F1807F01D3012010BD0B4C60600F2154
:1013F0004FF0FF30FFF7B0FF0021A1600720206011
:10140000002010BD00E400E018ED00E00CED00E06D
:101410000000FA0500E100E010E000E010B504462D
:1014200010460A460146204601F0D4FB204610BD76
:1014300010B58278C1780379447841EA0221427973
:1014400042EA0322037844EA032424B200EE104A5D
:1014500009B2B8EEC00ADFED130A144B01EE101A00
:1014600012B260EE200AB8EEC11AF2EE041A104968
:10147000C3ED000A00EE102A61EE211AB8EEC00A90
:10148000DFED090A0B4AC1ED001A60EE200AC2ED39
:10149000000A90F90610084B197090F907000749E7
:1014A000087010BDCDCCCC3D0AD7233C18020020DB
:1014B0001C02002020020020280200202902002017
:1014C00050B1B0FA80F18840C91CC1F584610905AA
:1014D00001EBD021400570470146704770B491EA96
:1014E000030F4FF0004540F1BF806B40841A71EB51
:1014F000030604D26E40001BB141121973414FF430
:10150000001C1CEB410F34BF7CEB430683E00C0D49
:10151000A4EB1356362E00F37C80012E45EAC3233C
:1015200041DC43EA525312BFD20292025B08240507
:1015300045EAC12141EA5051D2EBC020994125D45E
:1015400007D1B0FA80F610FA06F162D000202036FA
:1015500008E0B1FA81F6B140C6F1200220FA02F2A9
:101560001143B0404FEAF474B4EB465434F0010632
:101570004FEA74040AD8D6F50016760D04F000443C
:10158000F04061FA06F25040F1404840C00A40EA9B
:10159000415021F0004128BF5FEA500550F10000A2
:1015A00044EBD12135E0DB0A45EAC121C90AB6F195
:1015B00020050EDD42EA0242120CC5F1200603FAB4
:1015C00006F6EB4042EA06056D42984161F10001E2
:1015D0000DE062FA06F5F240554063FA06FC82EA35
:1015E0000C02F3405A406D42904161EB030111F44B
:1015F000801F05D1641E620502D06D004041494143
:1016000021F48011430875F1004350F1000041EBD3
:10161000045170BC70471CEB410F15D223F00043FE
:1016200052EA43060BD04FEA4C0CBCEB410F04D8F6
:101630000C0D661E342EB7DDEBE7801A994150EA97
:10164000410608BF0021E4E708BF1CEB430F28BF99
:101650006FF00001DDE7000070B491EA030F4FF076
:1016600000457FF543AF6B40841A71EB030603D24C
:10167000001BB141121973414FF4001C1CEB410FC8
:1016800034BF7CEB430442E00C0DA4EB1356352E23
:101690004FDC45EAC323DB0A45EAC121C912B6F192
:1016A00020050DDD63FA05F6EB4086EA03051242DC
:1016B00018BF45F00105C01851F100010CD213E02C
:1016C00062FA06F5F2405540F3415A40B340F34008
:1016D0005A408018594107D349085FEA30005FEA51
:1016E000350528BF45F0010501F58011420875F167
:1016F000004250F1000041EB04514E0016F5001F6E
:1017000070BC38BF70470020090D090570471CEBFD
:10171000410F10D252EA43060BD0BCEB410F05D863
:101720000C0DAB43661E342EB6DD02E0AB438018D1
:10173000594170BC704770BC70470000F0B540F272
:10174000FF7581EA030C0CF0004C15EA11541DBF23
:1017500015EA1357AC42AF42E5E0BC41C1F31301B7
:10176000C3F31303801A994143F4801304D2641E17
:101770000018494180185941C90241EA5051B1FB52
:10178000F3F603FB1611A2FB0675D7EBC020A941A7
:1017900002D2761E80185941C90241EA5051B1FB6C
:1017A000F3FE03FB1E11A2FB0E75D7EBC020A9416F
:1017B00003D2AEF1010E80185941890241EA9051DD
:1017C000760546EA8E2EB1FBF3F603FB1611A2FB5B
:1017D0000675D7EB8020A94102D2761E80185941A8
:1017E000C90241EA50514EEA060EB1FBF3F603FB83
:1017F0001611A2FB0675D7EBC020A94102D2761EB6
:1018000080185941C90241EA5051B1FBF3F703FB7B
:101810001711A2FB0735D3EBC020A94167F10007E0
:101820000CBF004247F0010766F3D5274FEA1E318F
:10183000B80814F5806412DDBD0775F1004250EB65
:101840000E5051EB045111F5801F5CBF41EA0C01B1
:10185000F0BD4CF07F6141F0E0410020F0BDBD07DC
:101860006D0840EA0E5041F48011D4F10104B4F146
:1018700020060ADAC4F120060200E04001FA06F36D
:10188000E1401843B24015430EE0342C13DCC6F19E
:10189000200445EA40056D0820FA06F2154321FAB6
:1018A00006F0A1400D43002175F1004250F1000007
:1018B00051EB0C01F0BD00205FEA0C01F0BDCFB987
:1018C00092185B41B3FA83F704BFB2FA82F6BF19EC
:1018D0000B3FB7F120062FBF02FA06F3BB40C7F15A
:1018E000200622FA06F638BF3343BA401CB1E41989
:1018F000641E33E77F4231F00041B1FA81F404BF46
:10190000B0FA80F6A4190B3CB4F120062FBF00FA00
:1019100006F1A140C4F1200620FA06F638BF314393
:10192000A0403C1B1AE7AC421ABF05EA1357AF426E
:1019300012E050EA41061CBF52EA4306BFE750EAF4
:101940004107304661461CBF41EA0551F0BD52EAED
:10195000430C08BFC143F0BD00204FF4001616EB46
:10196000410F98BF16EB430F08BF16EB410F24BF82
:10197000C14305E016EB430F0CBF61464CEA05512D
:10198000F0BD000010B50446C0B200F0F5F8E0B2BA
:10199000BDE81040002100F0E5B80000F8B52DEDDD
:1019A000088B0446B0EE408AF0EE608AB0EE429AB0
:1019B000F0EE629A11EE100A01F040F953EC182B88
:1019C000FFF74AFE394D95ED08BB41EC180B53EC7F
:1019D000182B51EC1B0BFFF781FD0022002301F0B7
:1019E00051F953EC192B01F04DF9D5E90A23FFF712
:1019F00075FD41EC1A0B51EC180B53EC1B2BFFF748
:101A00002BFE53EC192BFFF799FED5E9002341EC8F
:101A1000190B85ED088B51EC180B01F033F9D5E962
:101A2000022306460F4651EC1A0B01F02BF9324601
:101A30003B46FFF753FDD5E9042306460F4651EC1C
:101A4000190B01F01FF932463B46FFF747FD184AD4
:101A5000184B01F017F901F0EBF900EE100ADFED79
:101A6000110AB4EE600AF1EE10FAA8BFB1EE040A52
:101A700008DAF9EE040AB4EE600AF1EE10FA48BF93
:101A8000B0EE600A084981ED000A85ED0C9B85EDFA
:101A90000AAB85ED068B2046BDEC088BBDE8F24015
:101AA00000F03CB80100A04024020020700000209B
:101AB000FCA9F1D24D62503F70B53C4D3C4E686080
:101AC0000C4600200421E860A9602A613046FEF738
:101AD0000AFD0028FAD005F11803224629463046AF
:101AE000FEF796FCA9693046FEF713FD0128F9D0F0
:101AF00070BDF0B513780C16C4545B1CDFB20E1425
:101B00005B1CC655DDB20C12445500F001F8F0BD67
:101B10005B1C5E1CDBB21670C15470473EB500F012
:101B200015F800F00BF801F0B7F900F00BF800F031
:101B300015F844F48070FFF7BFFF37BD00221D4B3E
:101B400001F0A0B801466A4601A8D2E70446002584
:101B50008DF8005010EE100A01F070B89DF80020CA
:101B600001A9704780B58DF800100122694640F444
:101B7000A060FFF7A1FF01BD0F49FF220A704A7064
:101B80008A70CA700A714A718A71FC2209E00A4996
:101B9000FF220A704A708A70CA700A714A718A718B
:101BA000FD22CA71082287E700000000F40100202E
:101BB0000001002000408F401002002038B50400D2
:101BC00001D1012032BD00F07FF818B900F082F990
:101BD000FEF7EEFE55E090F83D10012901D00120FE
:101BE0007047022180F83D100168CA6842F0010286
:101BF000CA600168DFF8B420914218BFB1F1804F8C
:101C000017D0DFF8AC2091421CBFDFF8A830994212
:101C10000FD0DFF8A42091421CBFDFF8A03099421A
:101C200007D0DFF89C2091421CBFDFF89830994222
:101C300005D1896801F00701062905D001680A6805
:101C4000084642F001020260002070470168CA683D
:101C500052085200CA6041F2111301680A6A1A421E
:101C600002BF096A40F24442114205D101680A6884
:101C700052080B4652001A60012180F83D100020E6
:101C8000704702206870211D206800F027F90120AC
:101C9000A8720121A970E87029716871A971E871B1
:101CA000297268726970002032BD00000000014096
:101CB0000004004000080040000C00400004014007
:101CC000004001400018004004F13C05687870476E
:101CD00010B50446206801698A0715D5C1688A07CE
:101CE00012D56FF00201016101222277806910F0A4
:101CF000030F204602D001F0EAF803E001F0E8F813
:101D000000F087F800202077206801694A0715D580
:101D1000C1684A0712D56FF00401016102222277DF
:101D2000806910F4407F204602D001F0D0F803E033
:101D300001F0CEF800F06DF80020207720680169EE
:101D40000A0715D5C1680A0712D56FF008010161AD
:101D500004222277C06910F0030F204602D001F060
:101D6000B6F803E001F0B4F800F053F80020207753
:101D700020680169CA0615D5C168CA0612D56FF078
:101D80001001016108222277C06910F4407F2046CB
:101D900002D001F09CF803E001F09AF800F039F865
:101DA0000020207720680169CA0708D5C168CA07E2
:101DB00005D56FF0010101612046FEF751FE206854
:101DC00001690A0608D5C1680A0605D56FF08001C9
:101DD0000161204601F07DF8206801694A0608D5B6
:101DE000C1684A0605D56FF040010161204601F047
:101DF00071F8206801698A060AD5C1688A0607D584
:101E00006FF0200101612046BDE8104001F063B889
:101E100010BD204601F060B870B5064606F13C05DD
:101E200000242878012801D1022070BD01202870EB
:101E300002226A70DFF83C013268936803409360C5
:101E40000868020018BF102830D0202818BF30289A
:101E50002CD0402826D0502819D060281BD07028BC
:101E600006D0B0F5805F27D0B0F5005F07D022E044
:101E700000F02BF83068816841F0770105E000F050
:101E800024F83068816841F48041816014E000F0FA
:101E900018F850210BE0CA684968306800F091F8E2
:101EA000602104E000F00DF8402100E001463068B8
:101EB00000F099F800E001240120687000F00AF8B1
:101EC00070BDCA68496830686CE0CB684A68896848
:101ED000306890E00021297020467047F0B5056811
:101EE000254C264B264E274FDFF89CC0A04218BF3A
:101EF000B0F1804F07D0604518BFB84203D0B04260
:101F000018BF98420DD14A6825F070051543A042CC
:101F100018BFB0F1804F17D060451CBFB842B04227
:101F200012D098421CBF194A90420DD0184EB042B0
:101F30001CBF184A904207D0174EB0421FBF174A25
:101F40009042174EB04203D1CA6825F4407515433C
:101F50004A6925F0800515430560A0428D68C56279
:101F60000A68826212BF98420969016301224261D4
:101F7000F0BD00008800FFFF0000014000040140A8
:101F8000000C0040000800400004004000400140F8
:101F9000004401400048014000180040001C00407F
:101FA0000020004010B5036A046A640864000462FB
:101FB00023F00A03846924F0F00444EA02148461E3
:101FC00023E010B5036A23F0100303628369046AF7
:101FD00023F4704343EA023324F0A004836144EA0B
:101FE0000114046210BD826822F07002114341F0B6
:101FF00007018160704710B5846824F47F44214351
:10200000114341EA0321816010BD1943016210BDF3
:1020100080B50B48016841F400710160026842F428
:1020200080620260016841F4807101600320FFF763
:10203000A0F9002000F052FFFEF720FC002002BDB6
:10204000003C024070B500F13C031A78012A01D12E
:10205000022070BD01221A7002245C7005686E684F
:10206000AC680A6826F0700616436E600268114874
:10207000824218BFB2F1804F11D0114882421CBF7A
:10208000104DAA420BD00D4882421CBF0E4DAA42F1
:1020900005D0094882421CBF0C4DAA4204D14868B1
:1020A00024F08004044394600121597000201870CA
:1020B00070BD00000000014000400140000C0040E5
:1020C00000040040000800400004014000180040E7
:1020D00070B5044600250CB9012070BD04F130062E
:1020E000306928B92046FEF7E3FB002070613073A9
:1020F0003069C10600F192803069DFF8F81420F4ED
:10210000885040F002003061086820F440300860D8
:102110000A68606802430A602068416821F480719F
:10212000416020684168226941EA022141602068DB
:10213000416821F04071416021684A68A06802430B
:102140004A602068816821F40061816021688A68A2
:10215000E06802438A602068A16ADFF89C2491420B
:10216000816821F0706181600CD021688A68A06A62
:1021700002438A6000F05BF821688A68E06A0243E3
:102180008A6001E000F053F82068816821F00201C4
:1021900000F049F8227E41EA4201816094F8200073
:1021A0002168002848680FD040F40060486020682B
:1021B000416821F46041416020684168626A521EB2
:1021C00041EA4231416002E020F40060486020684A
:1021D000C16A21F47001C1622068C16AE269521EBD
:1021E00041EA0251C1622068816821F4007100F067
:1021F0001AF8327841EA422100F015F821F48061A2
:1022000000F011F8626941EA82218160002070616A
:102210000120316960F30101316100E001250020F6
:102220003073284670BD81602068816870472068DF
:10223000816821F040518160704738B500F074F832
:1022400001D1022032BD00F077F830D500F049F816
:1022500046BF906820F00600002000F031F8DFF85B
:10226000942300F05AF817D188420FD0DFF88C136E
:10227000884204D1126812F01F0F1AD106E0DFF86D
:102280008013884215D100F016F812D200F073F8CE
:102290000FD100F03DF80CE0884202BFDFF8640384
:1022A000016811F0405F04D100F02DF801E000F06A
:1022B0000FF8002032BD126802F01F02102A70478A
:1022C0009060002313706FF022000A68106070475E
:1022D000506840F010005060906840F0010090603D
:1022E00070475568DFF82003054045F48075556058
:1022F0005868430504D55368012060F30D335360DB
:102300005068C3047047016841F080410160704724
:10231000816841F080418160704708681368DFF888
:10232000EC1213F01F0F70470146002001F13C0230
:1023300000901378012B70470120107008688368A3
:10234000DC0714D48368DFF8C84243F001038360DC
:10235000DFF8C0020368B3FBF4F404EB4404009418
:1023600002E00098401E009000980028F9D10B6808
:102370009868C4077047816811F0405F7047F8B5EE
:102380000446002004F13C0300901D78012D01D18A
:102390000220F2BD0120187020688568EE070DD478
:1023A00085689B4E45F0010585609A480568B5FB38
:1023B000F6F606EB4606009600F013F920688568ED
:1023C000EE0503D5856825F4807585602568A868C5
:1023D000C60760D55F688C48074047F480775F6028
:1023E0006868450504D55D68012060F30D355D60C2
:1023F0005868C50446BF986820F006000020986021
:1024000000251D70A36B0FF21520D863A36B0FF28C
:1024100075201864A36B0FF27520D8646FF022004A
:10242000256828602068436843F080634360134652
:102430002068856845F4807585600A46206800F14B
:102440004C01A06BFEF749FE20686A4A6F49136889
:1024500013F01F0F15D188420DD06849884204D16E
:10246000126812F01F0F1ED105E0654988421AD18B
:10247000FFF721FF17D2FFF77EFF14D1FFF748FFC8
:1024800011E0884202BF5F48016811F0405F0AD145
:10249000FFF739FF07E0586840F01000586098686F
:1024A00040F0010098600020F2BD78B5024600209F
:1024B000009092F83C30012B01D1022072BD012026
:1024C00082F83C0007240B6810680A2B12D30A3BE1
:1024D000C56803EB43039C4025EA0404C460C36859
:1024E0000D688C68A5F10A0606EB4606B440234346
:1024F000C3600FE0056903EB430304FA03F325EA25
:102500000303036103690D688C6805EB4505AC4066
:10251000234303611F244B68072B0CD25B1E456BC2
:1025200000F059F84463436B4D680C886E1E00F050
:102530004DF843631BE00D2B0CD2DB1F056B00F045
:102540004AF80463036B4D680C88EE1F00F03EF8F8
:1025500003630CE00D3BC56A00F03DF8C462C36A3A
:102560004D680C88A5F10D0600F030F8C362274BCA
:10257000984226D10C681F48122C07D1036823F417
:1025800000030360046844F4800404600B68224C78
:10259000A34218BF112B14D1036823F480030360F6
:1025A000056845F4000505600868A04209D119498D
:1025B000174C0B68B3FBF4F40A204443009400F07A
:1025C00010F8002182F83C10002072BD06EB860650
:1025D000B4402343704703EB83039C4025EA040483
:1025E000704702E00098401E009000980028F9D142
:1025F00070470000042301400100000F002101404A
:102600000022014008200140FEF9FFFF00200140A8
:1026100040420F00B400002012000010816B0A6CD1
:1026200012F0500F24D1086C40F4007008640A685E
:10263000906810F0405F04BF087E002815D1D06A72
:1026400010F4700F02D0906843050ED4506820F04B
:1026500020005060086C20F480700864086CC2048C
:1026600003D4086C40F001000864084600F056BC32
:102670000A6CD30644BF084600F051BC896BCA6C93
:1026800010470000806B00F04BBC0000806B4021C5
:102690000164426C42F00402426400F040BC00005D
:1026A00038B50446FEF7BEF914F1010F054602D015
:1026B000044801786418FEF7B5F9401BA042FAD32C
:1026C00031BD00BFA800002000200860FEF7AAB9B5
:1026D0002DE95041DFF8C843DFF8BC636068DFF8DC
:1026E000BC8300F00C00042804D0082804D00C2877
:1026F00015D027E0404626E000F027F847BFC0F39A
:102700008816A8FB0601C0F38818A6FB080100F094
:1027100009FC2168C1F30141491C49000FE000F0A8
:1027200014F847BFC0F38816A8FB0601C0F3881849
:10273000A6FB080100F0F6FB2168C1F30271B0FBB3
:10274000F1F000E03046BDE85081002322682068A7
:102750004102206802F03F0270472DE9F84304006F
:102760001BD02078DFF83C63C10718D500F08BF947
:1027700004280DD000F087F9082802D170684102C2
:1027800006D400F080F90C2845D17068410242D58A
:102790003068810303D56068002800F06F812078DD
:1027A000DFF8047381071FD5B06810F00C0F0DD04F
:1027B00000F069F9082802D17068410206D500F0DE
:1027C00062F90C285CD17068410259D430688107E5
:1027D00003D5E068012840F051813168206921F07B
:1027E000F80141EAC00131602178080779D56069B4
:1027F000DFF8B812002868D001220A60FEF712F94B
:102800000546706F81076CD4FEF70CF9401B022857
:10281000F7D9032035E16068B0F5803F04D1306816
:1028200040F48030306011E0B0F5A02F306806D160
:1028300040F480203060316841F4803105E020F4BC
:1028400080303060316821F480213160606858B197
:10285000FEF7E8F8054630688103A0D4FEF7E2F8F9
:10286000401B6528F7D3D4E7FEF7DCF8054630684F
:10287000810394D5FEF7D6F8401B6528F7D3C8E747
:10288000E068A8B101213960FEF7CCF80546306850
:10289000810705D4FEF7C6F8401B0228F7D9B8E730
:1028A0003068216920F0F80040EAC10030609BE701
:1028B0003860FEF7B7F805463168880794D5FEF70B
:1028C000B1F8401B0228F7D9A3E7FFF7FEFE054643
:1028D000706F810705D5FEF7A5F8401B0228F7D9D0
:1028E00097E72078410760D5306C0025C1000BD4F4
:1028F000002000900125316C41F080513164306C32
:1029000000F0805000900098DFF8A481D8F8000013
:10291000C10513D4D8F8000040F48070C8F8000056
:10292000FEF780F88146D8F80000C10506D4FEF70E
:1029300079F8A0EB09000228F5D96AE7A068012818
:1029400005D00528306F06D140F004003067306FA5
:1029500040F0010005E0400840003067306F20F093
:102960000400306741F28938A06860B1FEF75AF878
:102970008146306F810713D4FEF754F8A0EB0900AD
:102980004045F6D345E7FEF74DF88146306F8107A5
:1029900006D5FEF747F8A0EB09004045F6D338E727
:1029A0001DB1306C20F080503064A069002867D0E1
:1029B000B16801F00C01082938D002282AD100F0B2
:1029C00066F805463068810105D5FEF72BF8401BF7
:1029D0000228F7D91DE7E069216A626A0843A16A03
:1029E000490840EA8210491E40EA0140E16A226B30
:1029F00040EA016040EA02707060012000F048F88F
:102A00000446306881013BD4FEF70CF8001B022815
:102A1000F7D9FEE600F03BF80446306881012FD577
:102A2000FEF700F8001B0228F7D9F2E6012825D0AE
:102A30007068E26900F48001914202BF00F03F013A
:102A4000226A914201BF47F6C0710140626AB1EB50
:102A5000821F13D1A26A520800F44031521EB1EB1A
:102A6000024F02BF00F07061E26AB1EB026F02BF79
:102A700000F0E040216BB0EB017F01D0012000E0CD
:102A80000020BDE8F283B06800F00C007047002021
:102A90003866FDF7C7BF00000024F40040787D01D0
:102AA000043802400038024000004742800E47428E
:102AB000007000402DE9F04104000F4654D0404E14
:102AC000306800F00F00B84202D200F073F84BD12A
:102AD00020683C4D810712D5400703D5A96841F411
:102AE000E051A9602078010703D5A86840F4604050
:102AF000A860A968A06821F0F0010143A9602178CD
:102B0000C80729D56068012802D129688A0305E031
:102B1000022818BF032803D129688A0103D423E0BF
:102B200029688A0720D5A968890840EA8100A86039
:102B3000FDF778FF8046A868616800F00C00B0EBF4
:102B4000810F09D0FDF76EFFA0EB080041F289313B
:102B50008842F0D303202BE0306800F00F0087425A
:102B600004D200F027F801D0012021E020784107AD
:102B700005D5AA68E06822F4E0520243AA602178F1
:102B8000080706D5A968206921F4604141EAC0011F
:102B9000A960FFF79DFDAA680B490C4BC2F3031215
:102BA000895CC84018600A48006800F097F9002066
:102BB000BDE8F0813770316801F00F01B94270470C
:102BC000003C024000380240D0300008B400002031
:102BD000B000002062F30F2262F31F42401810F091
:102BE000030308D0C91A1FD3DB0748BF00F8012D23
:102BF00028BF20F8022D130030B4144615461039B2
:102C000028BF20E93C00FAD8490728BF20E90C007A
:102C100048BF40F8042D890028BF20F8022D48BF86
:102C200000F8012D30BC7047C91818BF00F8012DFD
:102C3000CB0728BF00F8012D70470000C0F3C75133
:102C400081B1FF2906D0C110400721F0E04101F118
:102C50006051704741020CBF40F4E0016FF0004149
:102C60000020704700F0004100020AD0B0FA80FC5A
:102C700000FA0CF001F16051A1EB0C5101EBD021F5
:102C80004005704730B540F2FF7C1CEA11541DBF6F
:102C90001CEA1355644565453FE0641981EA030C5D
:102CA0006FF35F530CF0004C43F48013C90241F002
:102CB000004141EA505EC5021100A5FB0202002856
:102CC0004FF00000EEFB01204FF00001E3FB052177
:102CD00018BF42F00102401800214941E3FB0E01F8
:102CE000A4F580640D0302D292184041494154F189
:102CF000010470DD450872F1004250F1000051EB13
:102D00000451A1F5801102D441EA0C0130BD40F21A
:102D1000FF7E4CEA0E51002030BD0CEA135564458D
:102D200018BF654581EA030C0CF0004C41D050EA15
:102D3000410E1CBF52EA430E02E06146002030BD46
:102D400024422C441BD15FEA050EF6D0090302BFD2
:102D500001460020AEF1140EB1FA81F5AEEB050488
:102D600001FA05FE0C35C5F1200100FA05F5C84051
:102D70004EEA000E6FF35F5343F480139CE733F089
:102D80000043B3FA83F504BFB2FA82FE75440B3DEB
:102D9000641BB5F1200E2FBF02FA0EF3AB40C5F154
:102DA000200E22FA0EFE38BF43EA0E03AA40641C2E
:102DB0007CE750EA410E14BF52EA430E6FF0000167
:102DC0004FF4001515EB430F8EBF194615EB410F5D
:102DD0009DE7B4D830BDD4F10104B4F120050FDA79
:102DE000C4F12005520828BF42F0010210FA05FE86
:102DF00001FA05F57244E2BFE0402843E1400FE0EC
:102E0000352C9ADCC5F1200452EA400220FA05F282
:102E100018BF42F0010231FA05F0A1400A43002137
:102E200072F1004250F1000051EB0C0130BD000086
:102E300001F000428B1AA3F16051B1F5801F0ADB4B
:102E4000B1F17F6F1FD242EAC102C10071F10041AE
:102E500042EB507070470B15C3F10903212B10D2C0
:102E6000890241EA905180020128494141F0004124
:102E700021FA03F0C3F12003994071F10041504160
:102E80007047100070476FF0000013EB103F5CBFFD
:102E9000000E42EAC0507047C1F30A5340F21E428E
:102EA000D31A0CDDCA0283F3070342EA505242F000
:102EB0000042DA4002EBE17282EAE17070476FEAA9
:102EC000E17203F2E13008B182F0004070477047D0
:102ED00070477047704770477047000038B50D4D18
:102EE0000D4B2A7804464FF47A711868B1FBF2F260
:102EF000B0FBF2F0FEF772FA50B9102C08D20022A3
:102F000021464FF0FF30FEF741FAAC60002032BDA1
:102F1000012032BDA8000020B40000207047704797
:102F200070470000D3BBD9B1B2F5803F5BD2022A13
:102F30001ED98C46B1FBF2F102FB11C31B0443EA1C
:102F40001043B3FBF2FC02FB1C3380B240EA0343A4
:102F5000B3FBF2F002FB103240EA0C400023704752
:102F6000022A05D98446B0FBF2F002FB10C270477A
:102F70004AB105D100F0010249085FEA300070470C
:102F800000220023704700F051B80B00020000211E
:102F900000207047F7D3002200237047904271EB66
:102FA000030CF2D370B5B1FA81F4B3FA83F52C1B9C
:102FB000A340C4F1200532FA05F63343A2405FF086
:102FC0000046E64002E05B085FEA3202841A71EBD9
:102FD000030524BF204629467641F4D302000B00A6
:102FE0003000002170BD70B5B1FA81F4B2FA82F5FB
:102FF000C4F120046419B4F12006DAD3B2405FF0C2
:103000000044F440002502E052085FEA3303C61A88
:1030100071EB020E24BF3046714664416D41F3D31B
:1030200002000B002000290070BD00007047000066
:103030007047FEE7FEE7FEE7FEE770477047704720
:1030400000F014B80648FDF7FFBA0648FEF740BE88
:103050004FF40050FDF7AABF0348FEF774B8000014
:1030600000010020080000202801002002484168DB
:1030700002788A1842607047A800002030B400250A
:1030800012E050F8042BD30744BF4A44521E091FD4
:10309000042942F8045BFAD213468C0744BF15801A
:1030A0009B1CC90748BF1D7050F8041B0029E8D1BC
:1030B00030BC70470448054A016841F47001016062
:1030C0004FF000601060704788ED00E008ED00E010
:1030D00000000000000000000102030406070809C8
:1030E00010B5074979441831064C7C44163404E085
:1030F0000A68081D114488470146A142F8D110BD55
:103100002C000000480000004EF68851CEF200016D
:10311000086840F470000860BFF34F8FBFF36F8FF3
:103120004FF00170E1EE100A7047000051FFFFFF01
:1031300074010000B80000200000000007D7FFFF66
:10314000C8010000580000000000002000F00DF849
:10315000002801D0FFF7C4FFAFF300800020AFF3D9
:103160000080FDF7D3FC00F002F80120704700F06A
:1031700001B800000746384600F002F8FBE70000FF
:1031800080B5AFF30080024A11001820ABBEFBE708
:10319000260002000548014603B4684680F309880A
:1031A000AFF30080FFF7B0FFFFF7D0FFA5EDF5FE0E
:1031B0000148804701480047B530000895310008B4
:1031C000FFF7FEBFFFF7FEBFFFF7FEBFFFF7FEBF33
:1031D000FFF7FEBFFFF7FEBFFFF7FEBFFFF7FEBF23
:1031E000FFF7FEBFFFF7FEBFFFF7FEBFFFF7FEBF13
:1031F000FFF7FEBFFFF7FEBFFFF7FEBFFFF7FEBF03
:10320000FFF7FEBFFFF7FEBFFFF7FEBFFFF7FEBFF2
:10321000FFF7FEBFFFF7FEBFFFF7FEBFFFF7FEBFE2
:10322000FFF7FEBFFFF7FEBFFFF7FEBFFFF7FEBFD2
:10323000FFF7FEBFFFF7FEBFFFF7FEBFFFF7FEBFC2
:10324000FFF7FEBFFFF7FEBFFFF7FEBFFFF7FEBFB2
:10325000FFF7FEBFFFF7FEBFFFF7FEBFFFF7FEBFA2
:10326000FFF7FEBFFFF7FEBFFFF7FEBFFFF7FEBF92
:10327000FFF7FEBFFFF7FEBFFFF7FEBFFFF7FEBF82
:10328000FFF7FEBFFFF7FEBFFFF7FEBFFFF7FEBF72
:10329000FFF7FEBFFFF7FEBFFFF7FEBFFFF7FEBF62
:1032A000FFF7FEBFFFF7FEBFFFF7FEBFFFF7FEBF52
:1032B000FFF7FEBFFFF7FEBFFFF7FEBFFFF7FEBF42
:1032C000FFF7FEBFFFF7FEBFFFF7FEBFFFF7FEBF32
:1032D000FFF7FEBFFFF7FEBFFFF7FEBFFFF7FEBF22
:1032E000FFF7FEBFFFF7FEBFFFF7FEBFFFF7FEBF12
:1032F000FFF7FEBFFFF7FEBFFFF7FEBFFFF7FEBF02
:10330000FFF7FEBFFFF7FEBF01010EA200009AFB10
:103310009905A93F00004843F5000040FA00010864
:1033200040FA00011440E0000001F9000010FC0028
:043330000224F4007F
:040000050800319529
:00000001FF
