:020000040800F2
:10000000E0040020252A0008E9280008EB28000861
:10001000ED280008EF280008F12800080000000083
:10002000000000000000000000000000F3280008AD
:10003000F528000800000000F7280008F92800084B
:10004000352A0008392A00083D2A0008412A0008FC
:10005000452A0008492A00084D2A0008512A0008AC
:10006000552A0008592A00085D2A0008612A00085C
:10007000652A0008692A00086D2A0008712A00080C
:10008000752A0008792A00087D2A0008812A0008BC
:10009000FD280008852A0008892A00088D2A000802
:1000A000912A000803290008952A0008992A0008C7
:1000B0009D2A0008A12A0008A52A0008A92A0008EC
:1000C000AD2A0008B12A0008B52A0008B92A00089C
:1000D000BD2A0008C12A0008C52A0008C92A00084C
:1000E00011290008CD2A0008D12A0008D52A0008C5
:1000F000D92A0008DD2A0008E12A0008E52A0008BC
:10010000E92A0008ED2A0008F12A0008F52A00086B
:10011000F92A0008FD2A0008012B0008052B000819
:10012000092B00080D2B0008112B0008152B0008C7
:10013000192B000800000000000000001D2B000823
:10014000212B0008252B0008292B00082D2B000847
:10015000312B0008352B0008392B00083D2B0008F7
:10016000412B0008452B0008492B00084D2B0008A7
:10017000512B0008552B0008592B000800000000E7
:10018000000000005D2B00080000000000000000DF
:10019000612B00080000000000000000652B000833
:1001A000000000000000000000000000692B0008B3
:1001B0006D2B0008712B0008752B0008792B0008A7
:1001C0007D2B000838B5040022D094F8200010B927
:1001D000204600F06DFB00F00FF9054620684168ED
:1001E000C80705D400F0C6FB401B0B28F6D30DE072
:1001F00000F0FBF800F0BEFB054620684168880768
:1002000008D500F0B7FB401B0B28F6D300F0E5F84B
:10021000012032BD207E012806D1216808680A46E7
:1002200040F08000106005E020680168024621F07F
:1002300080011160607E00F03DF80CBF41F040018C
:1002400021F040010160A07E00F034F80CBF41F0C5
:10025000200121F020010160E07E00F02BF80CBFAE
:1002600021F0100141F010010160207F00F022F820
:100270000CBF41F0080121F008010160607F00F02F
:1002800019F80CBF41F0040121F004010160A268DB
:10029000E0682169024360690A436168024320689B
:1002A000491E0A43C26100216162012084F82000D6
:1002B000002032BD0128206801687047F0B590F831
:1002C0002020012A18BF022A54D14F4A106840F05A
:1002D00001001060136823F47C53136010684B6AAC
:1002E00040EA0320106001200B7D03F01F0300FA99
:1002F00003F3D069DC432040D061444800F5117518
:1003000000F51076C86958B9D0682040D060CF6831
:1003100000F034F80F68C7EA004C486945F830C06F
:10032000C86901280BD1D0681843D0600F6800F06D
:1003300025F8CE684F69C6EA004045F8370088695D
:10034000002850680CBF20401843506008690028FE
:10035000506907BF0440546118435061086A01287E
:1003600002D1D0690343D3610020116849084900D4
:100370001160F0BD416A41F48021ABE04868D1F8DA
:1003800014C0C0EA074746F83C708868704738B523
:10039000044694F82000012819D1022184F8201085
:1003A0002068026852085200026000F0E3FA054635
:1003B00020684168C80707D500F0DCFA401B0B280D
:1003C000F6D300F00AF806E00020606232BD606AF1
:1003D00040F400206062012032BD606A40F40030C9
:1003E0006062052184F82010704720680168024689
:1003F00021F00201116070472068016841F001019D
:10040000016000F0B7BA00000066004000640040E0
:10041000F0B590F820400568AD68012C18BF022C9B
:1004200055D115F0E05F4ED0C5F30164032C03D322
:10043000416A41F400014DE00125A5401D60240101
:100440000368CE6803F5C0758B681BB90B6846EA74
:10045000435603E04F6843EAC7031E432E51056825
:100460000B6905F5C2763351097D012906D1036870
:1004700003F5C2710D5945F480750D519379D17909
:1004800055791B0443EA0163117943EA05230568A2
:1004900025440B43C5F88C319378D17855781B04EB
:1004A00043EA01631178026843EA052322440B43BF
:1004B000C2F88831006800F5C070015941F00101AF
:1004C00001510020F0BD416A41F4001102E0416A8F
:1004D00041F4802141620120F0BD416A41F4802154
:1004E0004162012070470146002091F82020012A36
:1004F00018BF022A0CD109688A68530148BF01203D
:100500008A68130148BF401C8968CA0048BF401C64
:1005100070470246002092F82030012B18BF022BB2
:1005200007D11268936803EA8163B3EB816F18BF48
:1005300001207047F0B590F82040012C18BF022C24
:1005400066D10029046801D1E56800E0256915F04D
:10055000030F03D1416A41F400115CE00D0104F581
:10056000D876745914F004049460066806F5D876B9
:1005700003D17459640D146002E07659F608566090
:10058000046804F5D876775907F00207D76000F0C1
:1005900043F806F00F06166100F03EF8C6F3072494
:1005A000946100F039F8360C566102682A44D2F89A
:1005B000B8411C7006682E44D6F8B821120A5A7049
:1005C00004682C44D4F8B821120C9A7004682C44A6
:1005D000D4F8B821120EDA7000F023F81A7100F086
:1005E00020F8120A5A7100F01CF8120C9A7100F0EF
:1005F00018F8120EDA71006821B9C16841F02001C3
:10060000C16003E0016941F0200101610020F0BDFB
:10061000416A41F480215DE704682C44D4F8B46158
:10062000704704682C44D4F8BC21704790F820200F
:10063000012A18BF022A03D100684269114300E071
:100640004BE74161002070472DE9F84F05464FF018
:10065000000828684669D0F804B08468D0F80C9087
:10066000D0F810A08769F10745D5E20713D501211D
:100670008160A00703D5284600F082F90BE06007EF
:1006800048BF4FF4006806D420074EBF4FF480588F
:10069000284600F076F9E00515D52A684FF48071F8
:1006A000A005916003D5284600F06CF90BE06005C9
:1006B00048BF48F4005806D420054EBF48F480488F
:1006C000284600F060F9E00315D52A684FF4803120
:1006D000A003916003D5284600F056F90BE06003B3
:1006E00048BF48F4004806D420034EBF48F4803881
:1006F000284600F04AF9300748BF5FEAC96104D5CF
:100700002968102048F40078C860700748BF5FEA85
:10071000097105D508202A68D060284600F036F90E
:10072000B00707D52968C86810F0030F1CBF28461A
:1007300000F02EF9700648BF5FEACA6104D5296847
:10074000102048F480680861B00648BF5FEA0A716B
:1007500005D508202A681061284600F044FAF00602
:1007600007D52968086910F0030F1CBF284600F060
:100770003BFAB00348BF5FEACB6105D52A68102079
:100780005060284600F031FAF00348BF5FEA0B7171
:1007900005D52A6808205060284600F027FA300462
:1007A00040D55FEA4B713AD5F00503D5F90748BF4C
:1007B00048F00108B00503D5B90748BF48F0020862
:1007C000700503D5790748BF48F00408300526D5E1
:1007D00017F0700F23D007F07007102F0CD0202FC8
:1007E0000DD0302F0ED0402F0FD0502F10D0602FB3
:1007F00008BF48F480780DE048F008080AE048F0A7
:10080000100807E048F0200804E048F0400801E044
:1008100048F080082868816921F070018161042016
:1008200029684860B8F1000F09D0686A48EA0008F2
:10083000C5F824802846BDE8F24F00F0D8B9BDE8DD
:10084000F18F30B5016884684218416802EB5103AA
:10085000C90703D54C4401E0491C08D19A4218BF8E
:1008600012F9011B01D10C3030BD12F8015B0029D7
:1008700004F8015BF0D4491EF7D5EFE781B0002002
:10088000009000223548416841F480414160416850
:1008900001F48041009100990092036843F0805375
:1008A0000360006800F080500090009801B070472D
:1008B00010B586B004461422002101A800F098F972
:1008C00021682748814229D10022264800920169E7
:1008D00041F000710161016901F00071009100991E
:1008E00000924FF4C051036843F0010303600222F9
:1008F00000F02EF81C48019102920021039103227E
:1009000009210591049201A900F07CF9002200213F
:10091000142000F097FA142000F0B1FA06B010BDD0
:1009200000681249884200D0704780B50022104804
:100930000092016841F001010160002100F008F817
:10094000192000F07FFABDE80240192000F097BAA4
:10095000006800F0010000900098704740380240A5
:1009600000640040303802400000024000000140B6
:100970004438024001484068704700BF4C000020E6
:100980007047704770477047704770477047000066
:1009900010B5894C04F11C0322460021FFF7CAFD63
:1009A00028B904F11C00BDE8104000F093BA10BD56
:1009B00082490A1D904208D108789FED7D1AF7EE12
:1009C000000A9FED7C0A00F0D8BA7047B0F5005FCE
:1009D00000D0704710B5794C6178207821B9BDE816
:1009E0001040012100F084BB0E2906D100F0BAFAB4
:1009F000201DBDE8104000F0B4BB522907D1201DD6
:100A000000F0EAFB2078BDE8104000F086BB10BD86
:100A100038B58AB000F0C2FD00F081F800F0DEF8D1
:100A200000200090664C6748644D016841F0040165
:100A30000160026802F00402009200220099009214
:100A40004FF40051036843F0010303604FF40412B4
:100A5000006800F00100009000985B48019102924C
:100A60000021039101A900F0CDF8002200212820E7
:100A700000F0E8F9282000F002FA54482060032131
:100A80006160012000224FF4E021E076A260E26084
:100A9000216162612283A276A2832046FFF792FB46
:100AA0001022002102A800F0A3F8082200216846C5
:100AB00000F09EF84648686040F28F11A96000205F
:100AC000E86040F2DB516861A861E8612961281D96
:100AD00000F03AFB4FF48050029002A9281D00F06C
:100AE00061FC002100910191281D694600F070FD14
:100AF00000200590069007900190039000900290CE
:100B000004900122089269462046FFF7D7FB204651
:100B1000FFF73DFC02212046FFF788FDFEE700B508
:100B200093B03422002106A800F062F800F056F8D5
:100B30000020009001232748016841F080510160A6
:100B40000021006800F08050009000982248009139
:100B50000121026861F38F3202600222006800F412
:100B60004040009006A80099069210210A910C922C
:100B7000002108220D910E927821022209930F91F3
:100B800010921192129200F0B2FD02210291002205
:100B900003920F204FF4A051019004914FF4805222
:100BA0000592032101A800F04FFF13B000BD000023
:100BB000B81E053FCDCC4C3E840000200000002034
:100BC0005C00002030380240000802400064004011
:100BD0000000014040380240007000401422002113
:100BE00001A800F005B8704770477047704770471C
:100BF00010B5044610460A460146204600F0B4FFF0
:100C0000204610BD2DE9F84F0D4600267549764A5D
:100C10000F23044601202F68B04000EA07088045F2
:100C200040F0D0804FEA460C032707FA0CF76FEA32
:100C3000070E6F6807F00309B9F1010F1CBF07F039
:100C40000307022F12D1A768D5F80C900EEA070708
:100C500009FA0CF949EA0707A760676827EA000064
:100C60006F68C7F30017B74038436060B0002F7952
:100C700007F00307032F21D0E768D5F808900EEAA4
:100C8000070709FA0CF949EA0707E7602F7907F027
:100C90000307022F12D1F70804EB870700F01C09A5
:100CA000D7F820A003FA09FB2AEA0B0AD5F810B0FE
:100CB0000BFA09F949EA0A09C7F8209027680EEAF1
:100CC000070E2F7907F0030707FA0CF747EA0E0C17
:100CD000C4F800C06F6817F4403F73D04FF0000EA7
:100CE000CDF800E04FEA960C176847F4804717608C
:100CF00000F00C00D2F800E03C4F0EF4804ECDF82E
:100D000000E0DDF800E057F82C7003FA00FE27EA57
:100D10000E0E374FBC4208BF00271DD0354FBC42D6
:100D200008BF012718D0344FBC4208BF022713D098
:100D3000324FBC4208BF03270ED0314FBC4208BF20
:100D4000042709D02F4FBC4208BF052704D02E4FDF
:100D5000BC420CBF0627072707FA00F040EA0E0046
:100D6000DFF888E04EF82C006FEA0800D1F808C0E0
:100D70006F6800EA0C0CFF0248BF48EA0C0CC1F88F
:100D800008C0D1F80CC06F6800EA0C0CBF0248BF65
:100D900048EA0C0CC1F80CC0D1F804C06F6800EA36
:100DA0000C0CBF0348BF48EA0C0CC1F804C0D1F8D2
:100DB00000C000EA0C0C6868C00348BF48EA0C0C8D
:100DC000C1F800C0761C0F2E7FF624AFBDE8F18F6E
:100DD0000E4A136801460B421CBF1160FFF7F6BDB7
:100DE00070470000003C0140443802400838014090
:100DF000000002400004024000080240000C0240D3
:100E0000001002400014024000180240143C01404F
:100E10000901020002D4294881547047284B02F08E
:100E20000F021A4402F8041C7047264B19684FF64B
:100E3000FF020002114000F4E06008432249084329
:100E40001860704770B51F4B1C68C4F3022301245F
:100E5000C3F10705052D2EBF0F2504FA05F56D1EFC
:100E60001E1D072E34BF0023DB1E2940994004FAC3
:100E700003F3BDE870405B1E1A401143C8E7010050
:100E800007D4012200F01F01104B8A40400943F8AB
:100E90002020704710B5401EB0F1807F01D30120A3
:100EA00010BD0B4C60600F214FF0FF30FFF7B0FF1B
:100EB0000021A16007202060002010BD00E400E0B8
:100EC00018ED00E00CED00E00000FA0500E100E0A4
:100ED00010E000E010B58278C1780379447841EAE7
:100EE0000221427942EA0322037844EA032424B22D
:100EF00000EE104A09B2B8EEC00ADFED130A144B37
:100F000001EE101A12B260EE200AB8EEC11AF2EE2B
:100F1000041A1049C3ED000A00EE102A61EE211AEE
:100F2000B8EEC00ADFED090A0B4AC1ED001A60EE07
:100F3000200AC2ED000A90F90610084B197090F9CA
:100F400007000749087010BDCDCCCC3D0AD7233C23
:100F5000CC000020D0000020D4000020DC000020C5
:100F6000DD00002010B50446C0B200F0CBF8E0B2BE
:100F7000BDE81040002100F0BBB82DE97043274CBC
:100F800006462DED088B2068B0EE408AF0EE608AB0
:100F9000B0EE419A00F01CFE214A224B00F03CFECC
:100FA0000022214B00F00EFF41EC1A0B00F044F838
:100FB000B0EE40BA28EE880AF0EE60BA10EE100AE1
:100FC00000F006FE53EC1B2B00F026FE174A184BD0
:100FD00000F0F8FE8046894619EE100A00F0F8FD90
:100FE00004460D4600F028F853EC102B2046294605
:100FF00000F012FE42464B4601F008F881F0004135
:1010000001F02CF900EE100A0A4880ED000AF0B257
:10101000BDEC088BBDE8704300F046B8CC00002062
:10102000F1D4C853FB210940008066409CC420B025
:101030007268B13FD8000020B0EE4A0AF0EE6A0AAA
:1010400001F043B970B53C4D3C4E68600C46002041
:101050000421E860A9602A613046FFF744FA0028BD
:10106000FAD005F11803224629463046FFF7D0F999
:10107000A9693046FFF74DFA0128F9D070BDF0B5E7
:1010800013780C16C4545B1CDFB20E145B1CC655DF
:10109000DDB20C12445500F001F8F0BD5B1C5E1C83
:1010A000DBB21670C15470473EB500F015F800F081
:1010B0000BF801F011F900F00BF800F015F844F40A
:1010C0008070FFF7BFFF37BD00221D4B00F0A4BDAD
:1010D00001466A4601A8D2E7044600258DF8005073
:1010E00010EE100A00F074BD9DF8002001A97047B1
:1010F00080B58DF800100122694640F4A060FFF72A
:10110000A1FF01BD0F49FF220A704A708A70CA70A0
:101110000A714A718A71FC2209E00A49FF220A70A9
:101120004A708A70CA700A714A718A71FD22CA7146
:10113000082287E700000000A80000205C000020D3
:1011400000408F40C400002038B5040001D10120C8
:1011500032BD00F07FF818B900F082F9FFF7E0FB2C
:1011600055E090F83D10012901D00120704702217F
:1011700080F83D100168CA6842F00102CA60016847
:10118000DFF8B420914218BFB1F1804F17D0DFF8DB
:10119000AC2091421CBFDFF8A83099420FD0DFF895
:1011A000A42091421CBFDFF8A030994207D0DFF89D
:1011B0009C2091421CBFDFF89830994205D1896884
:1011C00001F00701062905D001680A68084642F0C7
:1011D00001020260002070470168CA68520852008C
:1011E000CA6041F2111301680A6A1A4202BF096A11
:1011F00040F24442114205D101680A6852080B4688
:1012000052001A60012180F83D1000207047022032
:101210006870211D206800F027F90120A8720121C3
:10122000A970E87029716871A971E87129726872F2
:101230006970002032BD0000000001400004004041
:1012400000080040000C0040000401400040014044
:101250000018004004F13C056878704710B504465A
:10126000206801698A0715D5C1688A0712D56FF011
:101270000201016101222277806910F0030F2046EC
:1012800002D001F044F803E001F042F800F087F8E2
:1012900000202077206801694A0715D5C1684A07F0
:1012A00012D56FF00401016102222277806910F4E7
:1012B000407F204602D001F02AF803E001F028F830
:1012C00000F06DF800202077206801690A0715D525
:1012D000C1680A0712D56FF0080101610422227764
:1012E000C06910F0030F204602D001F010F803E0AF
:1012F00001F00EF800F053F8002020772068016913
:10130000CA0615D5C168CA0612D56FF01001016171
:1013100008222277C06910F4407F204602D000F0F6
:10132000F6FF03E000F0F4FF00F039F8002020772A
:1013300020680169CA0708D5C168CA0705D56FF0DA
:10134000010101612046FFF733FB206801690A06AD
:1013500008D5C1680A0605D56FF0800101612046F5
:1013600000F0D7FF206801694A0608D5C1684A061F
:1013700005D56FF040010161204600F0CBFF2068E9
:1013800001698A060AD5C1688A0607D56FF020016F
:1013900001612046BDE8104000F0BDBF10BD2046F1
:1013A00000F0BABF70B5064606F13C050024287867
:1013B000012801D1022070BD0120287002226A702C
:1013C000DFF83C01326893680340936008680200CC
:1013D00018BF102830D0202818BF30282CD0402823
:1013E00026D0502819D060281BD0702806D0B0F520
:1013F000805F27D0B0F5005F07D022E000F02BF827
:101400003068816841F0770105E000F024F8306829
:10141000816841F48041816014E000F018F85021A7
:101420000BE0CA684968306800F091F8602104E078
:1014300000F00DF8402100E00146306800F099F816
:1014400000E001240120687000F00AF870BDCA684D
:10145000496830686CE0CB684A688968306890E019
:101460000021297020467047F0B50568254C264BB1
:10147000264E274FDFF89CC0A04218BFB0F1804F26
:1014800007D0604518BFB84203D0B04218BF984299
:101490000DD14A6825F070051543A04218BFB0F180
:1014A000804F17D060451CBFB842B04212D098425E
:1014B0001CBF194A90420DD0184EB0421CBF184AAA
:1014C000904207D0174EB0421FBF174A9042174EA6
:1014D000B04203D1CA6825F4407515434A6925F026
:1014E000800515430560A0428D68C5620A68826266
:1014F00012BF98420969016301224261F0BD0000F8
:101500008800FFFF0000014000040140000C004083
:101510000008004000040040004001400044014039
:101520000048014000180040001C0040002000401E
:1015300010B5036A046A64086400046223F00A03B5
:10154000846924F0F00444EA0214846123E010B5B5
:10155000036A23F0100303628369046A23F470436F
:1015600043EA023324F0A004836144EA01140462D4
:1015700010BD826822F07002114341F007018160C2
:10158000704710B5846824F47F442143114341EA35
:101590000321816010BD1943016210BD80B50B4865
:1015A000016841F400710160026842F480620260E7
:1015B000016841F4807101600320FFF736FC0020D0
:1015C00000F0ACFEFFF75AF9002002BD003C0240DB
:1015D00070B500F13C031A78012A01D1022070BDD8
:1015E00001221A7002245C7005686E68AC680A6893
:1015F00026F0700616436E6002681148824218BFDA
:10160000B2F1804F11D0114882421CBF104DAA4246
:101610000BD00D4882421CBF0E4DAA4205D009488E
:1016200082421CBF0C4DAA4204D1486824F08004B9
:1016300004439460012159700020187070BD0000AF
:101640000000014000400140000C00400004004048
:10165000000800400004014000180040002008601D
:10166000FFF788B92DE95041DFF8C843DFF8BC63C4
:101670006068DFF8BC8300F00C00042804D0082860
:1016800004D00C2815D027E0404626E000F027F8CB
:1016900047BFC0F38816A8FB0601C0F38818A6FB55
:1016A000080100F05BFE2168C1F30141491C4900BB
:1016B0000FE000F014F847BFC0F38816A8FB06013E
:1016C000C0F38818A6FB080100F048FE2168C1F3AA
:1016D0000271B0FBF1F000E03046BDE8508100231C
:1016E000226820684102206802F03F0270472DE91D
:1016F000F84304001BD02078DFF83C63C10718D5FD
:1017000000F08BF904280DD000F087F9082802D1E9
:101710007068410206D400F080F90C2845D1706849
:10172000410242D53068810303D56068002800F08B
:101730006F812078DFF8047381071FD5B06810F03F
:101740000C0F0DD000F069F9082802D17068410231
:1017500006D500F062F90C285CD17068410259D4BA
:101760003068810703D5E068012840F05181316875
:10177000206921F0F80141EAC001316021780807B1
:1017800079D56069DFF8B812002868D001220A60B4
:10179000FFF7F0F80546706F81076CD4FFF7EAF8A1
:1017A000401B0228F7D9032035E16068B0F5803F7F
:1017B00004D1306840F48030306011E0B0F5A02FE3
:1017C000306806D140F480203060316841F48031C7
:1017D00005E020F480303060316821F480213160F0
:1017E000606858B1FFF7C6F8054630688103A0D499
:1017F000FFF7C0F8401B6528F7D3D4E7FFF7BAF826
:1018000005463068810394D5FFF7B4F8401B65287E
:10181000F7D3C8E7E068A8B101213960FFF7AAF85B
:1018200005463068810705D4FFF7A4F8401B02285D
:10183000F7D9B8E73068216920F0F80040EAC10024
:1018400030609BE73860FFF795F8054631688807F8
:1018500094D5FFF78FF8401B0228F7D9A3E7FFF7CD
:10186000FEFE0546706F810705D5FFF783F8401B24
:101870000228F7D997E72078410760D5306C00251A
:10188000C1000BD4002000900125316C41F0805143
:101890003164306C00F0805000900098DFF8A48133
:1018A000D8F80000C10513D4D8F8000040F48070C7
:1018B000C8F80000FFF75EF88146D8F80000C105BF
:1018C00006D4FFF757F8A0EB09000228F5D96AE71C
:1018D000A068012805D00528306F06D140F004002B
:1018E0003067306F40F0010005E04008400030678D
:1018F000306F20F00400306741F28938A06860B191
:10190000FFF738F88146306F810713D4FFF732F8BC
:10191000A0EB09004045F6D345E7FFF72BF88146D9
:10192000306F810706D5FFF725F8A0EB0900404589
:10193000F6D338E71DB1306C20F080503064A069D8
:10194000002867D0B16801F00C01082938D00228BE
:101950002AD100F066F805463068810105D5FFF709
:1019600009F8401B0228F7D91DE7E069216A626A7D
:101970000843A16A490840EA8210491E40EA014032
:10198000E16A226B40EA016040EA02707060012067
:1019900000F048F80446306881013BD4FEF7EAFFC6
:1019A000001B0228F7D9FEE600F03BF80446306839
:1019B00081012FD5FEF7DEFF001B0228F7D9F2E6E2
:1019C000012825D07068E26900F48001914202BFCD
:1019D00000F03F01226A914201BF47F6C071014009
:1019E000626AB1EB821F13D1A26A520800F440313F
:1019F000521EB1EB024F02BF00F07061E26AB1EB20
:101A0000026F02BF00F0E040216BB0EB017F01D01C
:101A1000012000E00020BDE8F283B06800F00C0077
:101A2000704700203866FEF7A5BF00000024F400D0
:101A300040787D01043802400038024000004742EF
:101A4000800E4742007000402DE9F04104000F462F
:101A500054D0404E306800F00F00B84202D200F07F
:101A600073F84BD120683C4D810712D5400703D550
:101A7000A96841F4E051A9602078010703D5A8685E
:101A800040F46040A860A968A06821F0F00101431B
:101A9000A9602178C80729D56068012802D1296882
:101AA0008A0305E0022818BF032803D129688A01A8
:101AB00003D423E029688A0720D5A968890840EA69
:101AC0008100A860FEF756FF8046A868616800F0B4
:101AD0000C00B0EB810F09D0FEF74CFFA0EB080023
:101AE00041F289318842F0D303202BE0306800F0C6
:101AF0000F00874204D200F027F801D0012021E036
:101B00002078410705D5AA68E06822F4E052024334
:101B1000AA602178080706D5A968206921F46041E8
:101B200041EAC001A960FFF79DFDAA680B490C4B73
:101B3000C2F30312895CC84018600A48006800F0CC
:101B4000EDFB0020BDE8F0813770316801F00F0136
:101B5000B9427047003C0240003802404429000866
:101B6000580000205400002062F30F2262F31F424D
:101B7000401810F0030308D0C91A1FD3DB0748BF71
:101B800000F8012D28BF20F8022D130030B41446B0
:101B90001546103928BF20E93C00FAD8490728BF6C
:101BA00020E90C0048BF40F8042D890028BF20F828
:101BB000022D48BF00F8012D30BC7047C91818BF6E
:101BC00000F8012DCB0728BF00F8012D7047000059
:101BD000C0F3C75181B1FF2906D0C110400721F0E1
:101BE000E04101F16051704741020CBF40F4E00157
:101BF0006FF000410020704700F0004100020AD061
:101C0000B0FA80FC00FA0CF001F16051A1EB0C512C
:101C100001EBD0214005704730B540F2FF7C1CEA53
:101C200011541DBF1CEA1355644565453FE0641916
:101C300081EA030C6FF35F530CF0004C43F4801304
:101C4000C90241F0004141EA505EC5021100A5FB06
:101C5000020200284FF00000EEFB01204FF00001CF
:101C6000E3FB052118BF42F0010240180021494161
:101C7000E3FB0E01A4F580640D0302D292184041EB
:101C8000494154F1010470DD450872F1004250F100
:101C9000000051EB0451A1F5801102D441EA0C017E
:101CA00030BD40F2FF7E4CEA0E51002030BD0CEA00
:101CB0001355644518BF654581EA030C0CF0004CD0
:101CC00041D050EA410E1CBF52EA430E02E0614689
:101CD000002030BD24422C441BD15FEA050EF6D013
:101CE000090302BF01460020AEF1140EB1FA81F5DE
:101CF000AEEB050401FA05FE0C35C5F1200100FA32
:101D000005F5C8404EEA000E6FF35F5343F48013AD
:101D10009CE733F00043B3FA83F504BFB2FA82FEC6
:101D200075440B3D641BB5F1200E2FBF02FA0EF374
:101D3000AB40C5F1200E22FA0EFE38BF43EA0E0377
:101D4000AA40641C7CE750EA410E14BF52EA430EDD
:101D50006FF000014FF4001515EB430F8EBF1946CD
:101D600015EB410F9DE7B4D830BDD4F10104B4F1B7
:101D700020050FDAC4F12005520828BF42F0010205
:101D800010FA05FE01FA05F57244E2BFE04028436F
:101D9000E1400FE0352C9ADCC5F1200452EA400204
:101DA00020FA05F218BF42F0010231FA05F0A14015
:101DB0000A43002172F1004250F1000051EB0C0186
:101DC00030BD0000F0B540F2FF7581EA030C0CF065
:101DD000004C15EA11541DBF15EA1357AC42AF422F
:101DE000E5E0BC41C1F31301C3F31303801A994129
:101DF00043F4801304D2641E0018494180185941ED
:101E0000C90241EA5051B1FBF3F603FB1611A2FBE4
:101E10000675D7EBC020A94102D2761E8018594121
:101E2000C90241EA5051B1FBF3FE03FB1E11A2FBB4
:101E30000E75D7EBC020A94103D2AEF1010E801878
:101E40005941890241EA9051760546EA8E2EB1FB4E
:101E5000F3F603FB1611A2FB0675D7EB8020A94110
:101E600002D2761E80185941C90241EA50514EEA09
:101E7000060EB1FBF3F603FB1611A2FB0675D7EBBA
:101E8000C020A94102D2761E80185941C90241EAF8
:101E90005051B1FBF3F703FB1711A2FB0735D3EB4E
:101EA000C020A94167F100070CBF004247F00107BD
:101EB00066F3D5274FEA1E31B80814F5806412DDA9
:101EC000BD0775F1004250EB0E5051EB045111F576
:101ED000801F5CBF41EA0C01F0BD4CF07F6141F016
:101EE000E0410020F0BDBD076D0840EA0E5041F40E
:101EF0008011D4F10104B4F120060ADAC4F12006FD
:101F00000200E04001FA06F3E1401843B2401543F5
:101F10000EE0342C13DCC6F1200445EA40056D08C0
:101F200020FA06F2154321FA06F0A1400D430021E4
:101F300075F1004250F1000051EB0C01F0BD0020A2
:101F40005FEA0C01F0BDCFB992185B41B3FA83F799
:101F500004BFB2FA82F6BF190B3FB7F120062FBFBC
:101F600002FA06F3BB40C7F1200622FA06F638BF94
:101F70003343BA401CB1E419641E33E77F4231F0A9
:101F80000041B1FA81F404BFB0FA80F6A4190B3C09
:101F9000B4F120062FBF00FA06F1A140C4F12006DB
:101FA00020FA06F638BF3143A0403C1B1AE7AC428A
:101FB0001ABF05EA1357AF4212E050EA41061CBFB0
:101FC00052EA4306BFE750EA4107304661461CBF6C
:101FD00041EA0551F0BD52EA430C08BFC143F0BDD0
:101FE00000204FF4001616EB410F98BF16EB430F7D
:101FF00008BF16EB410F24BFC14305E016EB430FAA
:102000000CBF61464CEA0551F0BD000070B491EA86
:10201000030F4FF0004540F1B7806B40841A71EB1D
:10202000030604D26E40001BB141121973414FF4F4
:10203000001C1CEB410F34BF7CEB430683E00C0D0E
:10204000A4EB1356362E00F37C80012E45EAC32301
:1020500041DC43EA525312BFD20292025B082405CC
:1020600045EAC12141EA5051D2EBC020994125D423
:1020700007D1B0FA80F610FA06F162D000202036BF
:1020800008E0B1FA81F6B140C6F1200220FA02F26E
:102090001143B0404FEAF474B4EB465434F00106F7
:1020A0004FEA74040AD8D6F50016760D04F0004401
:1020B000F04061FA06F25040F1404840C00A40EA60
:1020C000415021F0004128BF5FEA500550F1000067
:1020D00044EBD12135E0DB0A45EAC121C90AB6F15A
:1020E00020050EDD42EA0242120CC5F1200603FA79
:1020F00006F6EB4042EA06056D42984161F10001A7
:102100000DE062FA06F5F240554063FA06FC82EAF9
:102110000C02F3405A406D42904161EB030111F40F
:10212000801F05D1641E620502D06D004041494107
:1021300021F48011430875F1004350F1000041EB98
:10214000045170BC70471CEB410F15D223F00043C3
:1021500052EA43060BD04FEA4C0CBCEB410F04D8BB
:102160000C0D661E342EB7DDEBE7801A994150EA5C
:10217000410608BF0021E4E708BF1CEB430F28BF5E
:102180006FF00001DDE70000841A71EB030603D253
:10219000001BB141121973414FF4001C1CEB410F9D
:1021A00034BF7CEB430442E00C0DA4EB1356352EF8
:1021B0004FDC45EAC323DB0A45EAC121C912B6F167
:1021C00020050DDD63FA05F6EB4086EA03051242B1
:1021D00018BF45F00105C01851F100010CD213E001
:1021E00062FA06F5F2405540F3415A40B340F340DD
:1021F0005A408018594107D349085FEA30005FEA26
:10220000350528BF45F0010501F58011420875F13B
:10221000004250F1000041EB04514E0016F5001F42
:1022200070BC38BF70470020090D090570471CEBD2
:10223000410F10D252EA43060BD0BCEB410F05D838
:102240000C0DAB43661E342EB6DD02E0AB438018A6
:10225000594170BC704770BC7047000001F00042EB
:102260008B1AA3F16051B1F5801F0ADBB1F17F6FCA
:102270001FD242EAC102C10071F1004142EB50702D
:1022800070470B15C3F10903212B10D2890241EAD3
:10229000905180020128494141F0004121FA03F0A8
:1022A000C3F12003994071F1004150417047100083
:1022B00070476FF0000013EB103F5CBF000E42EA66
:1022C000C050704741EC100B01BD80B551EC100BB4
:1022D00000F0BEFAF6E70000C1F30A5340F21E42D6
:1022E000D31A0CDDCA0283F3070342EA505242F0CC
:1022F0000042DA4002EBE17282EAE17070476FEA75
:10230000E17203F2E13008B182F00040704770479B
:1023100070477047704770477047000038B50D4DE3
:102320000D4B2A7804464FF47A711868B1FBF2F22B
:10233000B0FBF2F0FEF7AEFD50B9102C08D200222F
:1023400021464FF0FF30FEF77DFDAC60002032BD2E
:10235000012032BD4C00002058000020D3BBD9B171
:10236000B2F5803F5BD2022A1ED98C46B1FBF2F156
:1023700002FB11C31B0443EA1043B3FBF2FC02FB54
:102380001C3380B240EA0343B3FBF2F002FB10328D
:1023900040EA0C4000237047022A05D98446B0FB6E
:1023A000F2F002FB10C270474AB105D100F0010201
:1023B00049085FEA3000704700220023704700F0B0
:1023C00049BA0B000200002100207047F7D3002219
:1023D00000237047904271EB030CF2D370B5B1FA51
:1023E00081F4B3FA83F52C1BA340C4F1200532FA23
:1023F00005F63343A2405FF00046E64002E05B088A
:102400005FEA3202841A71EB030524BF2046294695
:102410007641F4D302000B003000002170BD70B58E
:10242000B1FA81F4B2FA82F5C4F120046419B4F16E
:102430002006DAD3B2405FF00044F440002502E009
:1024400052085FEA3303C61A71EB020E24BF30460E
:10245000714664416D41F3D302000B002000290056
:1024600070BD0000F8B52DED068B41EC180B17463A
:1024700053EC182BD248D349FFF7CEFB41EC190B94
:102480000C4624F00041D04AD04B00F0E5F95AD276
:102490009FEDC90B51EC100B04F0004453EC192BC9
:1024A0002143FFF7B3FDFFF717FF060047D000F009
:1024B000EDF90022C74BFFF7AFFB41EC190B53ECD2
:1024C000192B4FF0A040C449FFF7A6FB53EC182B83
:1024D000FFF79CFD04460D4653EC192B4FF0C0400E
:1024E000BE49FFF799FB22462B46FFF78FFD0446B6
:1024F0000D4653EC192B4FF00050B949FFF78CFBF8
:1025000022462B46FFF782FD04460D4653EC192B5D
:102510000020B449FFF780FB22462B46FFF776FDEB
:1025200004460D4653EC192B4FF00050A849FFF715
:1025300073FB22462B46FFF769FD41EC180B06F0B2
:102540000306F719A3E051EC180B48004015401C96
:1025500009D1090340F02A81BDEC068B4FF0FF3012
:102560006FF00041F4BD51EC180B31F0004108BF91
:10257000002805D1002F00F019819FED9B8B15E1FC
:102580009FED8D0B51EC100B04F0004453EC192B14
:102590002143FFF73BFD4B0043EAD073420041EC7F
:1025A000190B002B08BF002A19D040F23344A4EBCA
:1025B0005352352A04DB00F0000001F000410CE02A
:1025C000202A03DD203AD140914000E001D10020D3
:1025D00003E0002AC4BFD040904041EC190B51ECFD
:1025E000190B20F0000231F0004308BF002A47D049
:1025F00053EC192B00207749FFF70EFB41EC1A0B27
:1026000053EC1A2B4FF0A0407349FFF705FB53EC36
:10261000182BFFF7FBFC04460D4653EC1A2B4FF02A
:10262000C0406E49FFF7F8FA22462B46FFF7EEFC52
:1026300004460D4653EC1A2B4FF000506849FFF743
:10264000EBFA22462B46FFF7E1FC04460D4653EC1D
:102650001A2B00206349FFF7DFFA22462B46FFF7CB
:10266000D5FC04460D4653EC1A2B4FF00050584948
:10267000FFF7D2FA22462B46FFF7C8FC41EC180BB5
:1026800051EC190BFFF728FE00F00300C71951ECBD
:10269000180B21F0004100224FF0795300F0DCF8D4
:1026A00007F0010404D2002C78D09FED4F8B75E029
:1026B00053EC182B51EC180BFFF7AEFA002C41EC41
:1026C000190B31D053EC192B49484A49FFF7A4FAAA
:1026D000494A4A4BFFF79AFC53EC192BFFF79CFA37
:1026E000474A484BFFF792FC53EC192BFFF794FA3B
:1026F000454A464BFFF78AFC53EC192BFFF78CFA3F
:10270000434A444BFFF782FC53EC192BFFF784FA42
:102710006FF05102404BFFF779FC53EC192BFFF798
:102720007BFA00223D4B35E053EC182BFFF774FA8F
:1027300004460D4653EC192B39483A49FFF76CFA19
:10274000394A3A4BFFF762FC53EC192BFFF764FA56
:10275000374A384BFFF75AFC53EC192BFFF75CFA5A
:10276000354A364BFFF752FC53EC192BFFF754FA5E
:10277000334A344BFFF74AFC53EC192BFFF74CFA62
:10278000314A324BFFF742FC22462B46FFF744FA10
:1027900053EC182BFFF73AFC41EC180BB80705D5A2
:1027A00051EC180B81F0004141EC180B51EC180B67
:1027B000BDEC068BF4BD00BF000000000000E03F50
:1027C00083C8C96D305FE43F0000A0FFFFFFDF4119
:1027D0009A833BBB0000303EFB21B9C1B41011C04D
:1027E00026A651BE5C14D3BC000000000000F03FE0
:1027F00009260A1039BA213E3BA861C6F97D92BE6E
:1028000063AC30909F01FA3EF6FB51166CC156BF87
:10281000B10255555555A53FFFFFDFBF0000F03F02
:10282000B08F2FC310D8E53D8F0C73A1E1E55ABEE0
:102830004DADE44FE31DC73E3EE3B519A0012ABFED
:10284000FAF010111111813F425555555555C5BF2C
:10285000002207E67047000041EA030C50EA4C0CE6
:1028600052EA0C0C4FF4001C09D307D01CEB410FAB
:102870009CBF1CEB430F8B4208BF824270471CEB8E
:10288000430FFBD8994208BF9042704710F00041B7
:1028900060B148BF4042B0FA80F29040D21CC2F50D
:1028A000846241EA025202EBD0214005704730B405
:1028B000002512E050F8042BD30744BF4A44521EAF
:1028C000091F042942F8045BFAD213468C0744BF5F
:1028D00015809B1CC90748BF1D7050F8041B0029B8
:1028E000E8D130BC704700007047FEE7FEE7FEE726
:1028F000FEE770477047704700F00EB80248FDF7DA
:10290000A3BE0248FEF7AABC5C0000200400002021
:102910004FF40050FEF75CBA0248416802788A180A
:10292000426070474C0000200448054A016841F4A9
:10293000700101604FF000601060704788ED00E0AA
:1029400008ED00E0000000000000000001020304A8
:102950000607080910B5074979441831064C7C442C
:10296000163404E00A68081D114488470146A14254
:10297000F8D110BD2C000000480000004EF6885130
:10298000CEF20001086840F470000860BFF34F8F7A
:10299000BFF36F8F4FF00170E1EE100A7047000037
:1029A0000FFFFFFF840000005C000020000000001B
:1029B00093DEFFFFCC010000220000000000002099
:1029C00000F00DF8002801D0FFF7C4FFAFF300803E
:1029D0000020AFF30080FEF71BF800F002F80120A2
:1029E000704700F001B800000746384600F002F8D2
:1029F000FBE7000080B5AFF30080024A1100182009
:102A0000ABBEFBE7260002000548014603B468465A
:102A100080F30988AFF30080FFF7B0FFFFF7D0FF26
:102A2000A5EDF5FE01488047014800472929000827
:102A3000092A0008FFF7FEBFFFF7FEBFFFF7FEBF42
:102A4000FFF7FEBFFFF7FEBFFFF7FEBFFFF7FEBFBA
:102A5000FFF7FEBFFFF7FEBFFFF7FEBFFFF7FEBFAA
:102A6000FFF7FEBFFFF7FEBFFFF7FEBFFFF7FEBF9A
:102A7000FFF7FEBFFFF7FEBFFFF7FEBFFFF7FEBF8A
:102A8000FFF7FEBFFFF7FEBFFFF7FEBFFFF7FEBF7A
:102A9000FFF7FEBFFFF7FEBFFFF7FEBFFFF7FEBF6A
:102AA000FFF7FEBFFFF7FEBFFFF7FEBFFFF7FEBF5A
:102AB000FFF7FEBFFFF7FEBFFFF7FEBFFFF7FEBF4A
:102AC000FFF7FEBFFFF7FEBFFFF7FEBFFFF7FEBF3A
:102AD000FFF7FEBFFFF7FEBFFFF7FEBFFFF7FEBF2A
:102AE000FFF7FEBFFFF7FEBFFFF7FEBFFFF7FEBF1A
:102AF000FFF7FEBFFFF7FEBFFFF7FEBFFFF7FEBF0A
:102B0000FFF7FEBFFFF7FEBFFFF7FEBFFFF7FEBFF9
:102B1000FFF7FEBFFFF7FEBFFFF7FEBFFFF7FEBFE9
:102B2000FFF7FEBFFFF7FEBFFFF7FEBFFFF7FEBFD9
:102B3000FFF7FEBFFFF7FEBFFFF7FEBFFFF7FEBFC9
:102B4000FFF7FEBFFFF7FEBFFFF7FEBFFFF7FEBFB9
:102B5000FFF7FEBFFFF7FEBFFFF7FEBFFFF7FEBFA9
:102B6000FFF7FEBFFFF7FEBFFFF7FEBFFFF7FEBF99
:102B7000FFF7FEBFFFF7FEBFFFF7FEBFFFF7FEBF89
:102B800001010EB6000001F9000010FC000224F45F
:012B90000044
:0400000508002A09BC
:00000001FF
